{
  "contractName": "FomoPhoenix",
  "abi": [
    {
      "inputs": [
        {
          "internalType": "address payable",
          "name": "_noExpectationsWallet",
          "type": "address"
        },
        {
          "internalType": "address",
          "name": "_playerBookAddress",
          "type": "address"
        },
        {
          "internalType": "address payable",
          "name": "_defaultRefAddress",
          "type": "address"
        }
      ],
      "stateMutability": "payable",
      "type": "constructor"
    },
    {
      "anonymous": false,
      "inputs": [
        {
          "indexed": true,
          "internalType": "address",
          "name": "buyer",
          "type": "address"
        },
        {
          "indexed": false,
          "internalType": "uint256",
          "name": "amount",
          "type": "uint256"
        }
      ],
      "name": "KeyPurchased",
      "type": "event"
    },
    {
      "anonymous": false,
      "inputs": [
        {
          "indexed": false,
          "internalType": "string",
          "name": "message",
          "type": "string"
        },
        {
          "indexed": false,
          "internalType": "uint256",
          "name": "value",
          "type": "uint256"
        }
      ],
      "name": "Log",
      "type": "event"
    },
    {
      "anonymous": false,
      "inputs": [
        {
          "indexed": true,
          "internalType": "address",
          "name": "winner",
          "type": "address"
        },
        {
          "indexed": false,
          "internalType": "uint256",
          "name": "amount",
          "type": "uint256"
        }
      ],
      "name": "PrizeClaimed",
      "type": "event"
    },
    {
      "inputs": [],
      "name": "affiliateRate",
      "outputs": [
        {
          "internalType": "uint256",
          "name": "",
          "type": "uint256"
        }
      ],
      "stateMutability": "view",
      "type": "function"
    },
    {
      "inputs": [],
      "name": "defaultRefAddress",
      "outputs": [
        {
          "internalType": "address payable",
          "name": "",
          "type": "address"
        }
      ],
      "stateMutability": "view",
      "type": "function"
    },
    {
      "inputs": [],
      "name": "diviePot",
      "outputs": [
        {
          "internalType": "uint256",
          "name": "",
          "type": "uint256"
        }
      ],
      "stateMutability": "view",
      "type": "function"
    },
    {
      "inputs": [],
      "name": "diviePotTaxRate",
      "outputs": [
        {
          "internalType": "uint256",
          "name": "",
          "type": "uint256"
        }
      ],
      "stateMutability": "view",
      "type": "function"
    },
    {
      "inputs": [],
      "name": "endSidePot",
      "outputs": [
        {
          "internalType": "uint256",
          "name": "",
          "type": "uint256"
        }
      ],
      "stateMutability": "view",
      "type": "function"
    },
    {
      "inputs": [],
      "name": "endSidePotTaxRate",
      "outputs": [
        {
          "internalType": "uint256",
          "name": "",
          "type": "uint256"
        }
      ],
      "stateMutability": "view",
      "type": "function"
    },
    {
      "inputs": [],
      "name": "initialKeyPrice",
      "outputs": [
        {
          "internalType": "uint256",
          "name": "",
          "type": "uint256"
        }
      ],
      "stateMutability": "view",
      "type": "function"
    },
    {
      "inputs": [],
      "name": "lastBuyer",
      "outputs": [
        {
          "internalType": "address",
          "name": "",
          "type": "address"
        }
      ],
      "stateMutability": "view",
      "type": "function"
    },
    {
      "inputs": [],
      "name": "nextRoundTaxRate",
      "outputs": [
        {
          "internalType": "uint256",
          "name": "",
          "type": "uint256"
        }
      ],
      "stateMutability": "view",
      "type": "function"
    },
    {
      "inputs": [],
      "name": "nextRoundsPot",
      "outputs": [
        {
          "internalType": "uint256",
          "name": "",
          "type": "uint256"
        }
      ],
      "stateMutability": "view",
      "type": "function"
    },
    {
      "inputs": [],
      "name": "noExpectationsWallet",
      "outputs": [
        {
          "internalType": "address",
          "name": "",
          "type": "address"
        }
      ],
      "stateMutability": "view",
      "type": "function"
    },
    {
      "inputs": [],
      "name": "owner",
      "outputs": [
        {
          "internalType": "address",
          "name": "",
          "type": "address"
        }
      ],
      "stateMutability": "view",
      "type": "function"
    },
    {
      "inputs": [],
      "name": "playerBookAddress",
      "outputs": [
        {
          "internalType": "address",
          "name": "",
          "type": "address"
        }
      ],
      "stateMutability": "view",
      "type": "function"
    },
    {
      "inputs": [],
      "name": "playersBook",
      "outputs": [
        {
          "internalType": "contract PlayersBook",
          "name": "",
          "type": "address"
        }
      ],
      "stateMutability": "view",
      "type": "function"
    },
    {
      "inputs": [],
      "name": "pot",
      "outputs": [
        {
          "internalType": "uint256",
          "name": "",
          "type": "uint256"
        }
      ],
      "stateMutability": "view",
      "type": "function"
    },
    {
      "inputs": [],
      "name": "potContributionRate",
      "outputs": [
        {
          "internalType": "uint256",
          "name": "",
          "type": "uint256"
        }
      ],
      "stateMutability": "view",
      "type": "function"
    },
    {
      "inputs": [],
      "name": "priceIncreaseRate",
      "outputs": [
        {
          "internalType": "uint256",
          "name": "",
          "type": "uint256"
        }
      ],
      "stateMutability": "view",
      "type": "function"
    },
    {
      "inputs": [],
      "name": "priceIncreaseRateTwo",
      "outputs": [
        {
          "internalType": "uint256",
          "name": "",
          "type": "uint256"
        }
      ],
      "stateMutability": "view",
      "type": "function"
    },
    {
      "inputs": [],
      "name": "prizeClaimed",
      "outputs": [
        {
          "internalType": "bool",
          "name": "",
          "type": "bool"
        }
      ],
      "stateMutability": "view",
      "type": "function"
    },
    {
      "inputs": [],
      "name": "roundDuration",
      "outputs": [
        {
          "internalType": "uint256",
          "name": "",
          "type": "uint256"
        }
      ],
      "stateMutability": "view",
      "type": "function"
    },
    {
      "inputs": [],
      "name": "roundEndTime",
      "outputs": [
        {
          "internalType": "uint256",
          "name": "",
          "type": "uint256"
        }
      ],
      "stateMutability": "view",
      "type": "function"
    },
    {
      "inputs": [],
      "name": "roundIntermission",
      "outputs": [
        {
          "internalType": "uint256",
          "name": "",
          "type": "uint256"
        }
      ],
      "stateMutability": "view",
      "type": "function"
    },
    {
      "inputs": [],
      "name": "roundNumber",
      "outputs": [
        {
          "internalType": "uint256",
          "name": "",
          "type": "uint256"
        }
      ],
      "stateMutability": "view",
      "type": "function"
    },
    {
      "inputs": [],
      "name": "taxPercentage",
      "outputs": [
        {
          "internalType": "uint256",
          "name": "",
          "type": "uint256"
        }
      ],
      "stateMutability": "view",
      "type": "function"
    },
    {
      "inputs": [],
      "name": "timerExtension",
      "outputs": [
        {
          "internalType": "uint256",
          "name": "",
          "type": "uint256"
        }
      ],
      "stateMutability": "view",
      "type": "function"
    },
    {
      "inputs": [],
      "name": "totalDividends",
      "outputs": [
        {
          "internalType": "uint256",
          "name": "",
          "type": "uint256"
        }
      ],
      "stateMutability": "view",
      "type": "function"
    },
    {
      "inputs": [],
      "name": "totalKeys",
      "outputs": [
        {
          "internalType": "uint256",
          "name": "",
          "type": "uint256"
        }
      ],
      "stateMutability": "view",
      "type": "function"
    },
    {
      "stateMutability": "payable",
      "type": "receive"
    },
    {
      "inputs": [
        {
          "internalType": "uint256",
          "name": "numKeysToPurchase",
          "type": "uint256"
        }
      ],
      "name": "calculateTotalPrice",
      "outputs": [
        {
          "internalType": "uint256",
          "name": "",
          "type": "uint256"
        }
      ],
      "stateMutability": "view",
      "type": "function"
    },
    {
      "inputs": [],
      "name": "calculateKeyPrice",
      "outputs": [
        {
          "internalType": "uint256",
          "name": "",
          "type": "uint256"
        }
      ],
      "stateMutability": "view",
      "type": "function"
    },
    {
      "inputs": [
        {
          "internalType": "uint256",
          "name": "referralCode",
          "type": "uint256"
        },
        {
          "internalType": "address payable",
          "name": "affAddress",
          "type": "address"
        },
        {
          "internalType": "address payable",
          "name": "playerAddress",
          "type": "address"
        }
      ],
      "name": "registerPlayer",
      "outputs": [],
      "stateMutability": "nonpayable",
      "type": "function"
    },
    {
      "inputs": [
        {
          "internalType": "uint256",
          "name": "numberOfKeys",
          "type": "uint256"
        }
      ],
      "name": "buyKeys",
      "outputs": [],
      "stateMutability": "payable",
      "type": "function"
    },
    {
      "inputs": [],
      "name": "getTotalKeysBought",
      "outputs": [
        {
          "internalType": "uint256",
          "name": "",
          "type": "uint256"
        }
      ],
      "stateMutability": "view",
      "type": "function"
    },
    {
      "inputs": [
        {
          "internalType": "address",
          "name": "keyHolderAddress",
          "type": "address"
        }
      ],
      "name": "getNumKeysBought",
      "outputs": [
        {
          "internalType": "uint256",
          "name": "",
          "type": "uint256"
        }
      ],
      "stateMutability": "view",
      "type": "function"
    },
    {
      "inputs": [],
      "name": "claimSidePot",
      "outputs": [],
      "stateMutability": "nonpayable",
      "type": "function"
    },
    {
      "inputs": [],
      "name": "claimDividends",
      "outputs": [],
      "stateMutability": "nonpayable",
      "type": "function"
    },
    {
      "inputs": [
        {
          "internalType": "uint256",
          "name": "taxAmount",
          "type": "uint256"
        },
        {
          "internalType": "uint256",
          "name": "potFee",
          "type": "uint256"
        },
        {
          "internalType": "uint256",
          "name": "affiliateFee",
          "type": "uint256"
        },
        {
          "internalType": "uint256",
          "name": "endSidePotFee",
          "type": "uint256"
        },
        {
          "internalType": "uint256",
          "name": "diviePotFee",
          "type": "uint256"
        }
      ],
      "name": "setTotalTax",
      "outputs": [],
      "stateMutability": "nonpayable",
      "type": "function"
    },
    {
      "inputs": [
        {
          "internalType": "uint256",
          "name": "newRate",
          "type": "uint256"
        },
        {
          "internalType": "uint256",
          "name": "newRateTwo",
          "type": "uint256"
        }
      ],
      "name": "setPriceIncreaseRate",
      "outputs": [],
      "stateMutability": "nonpayable",
      "type": "function"
    },
    {
      "inputs": [
        {
          "internalType": "uint256",
          "name": "price",
          "type": "uint256"
        }
      ],
      "name": "setInitialPrice",
      "outputs": [],
      "stateMutability": "nonpayable",
      "type": "function"
    },
    {
      "inputs": [],
      "name": "claimPrize",
      "outputs": [],
      "stateMutability": "nonpayable",
      "type": "function"
    },
    {
      "inputs": [],
      "name": "getCurrentTimeLeft",
      "outputs": [
        {
          "internalType": "uint256",
          "name": "",
          "type": "uint256"
        }
      ],
      "stateMutability": "view",
      "type": "function"
    },
    {
      "inputs": [
        {
          "internalType": "string",
          "name": "vanity",
          "type": "string"
        },
        {
          "internalType": "address",
          "name": "playerAddress",
          "type": "address"
        }
      ],
      "name": "purchaseVanity",
      "outputs": [],
      "stateMutability": "payable",
      "type": "function"
    },
    {
      "inputs": [],
      "name": "forceStartNewRound",
      "outputs": [],
      "stateMutability": "nonpayable",
      "type": "function"
    },
    {
      "inputs": [
        {
          "internalType": "uint256",
          "name": "duration",
          "type": "uint256"
        }
      ],
      "name": "setRoundTime",
      "outputs": [],
      "stateMutability": "nonpayable",
      "type": "function"
    },
    {
      "inputs": [
        {
          "internalType": "address",
          "name": "playerBook",
          "type": "address"
        }
      ],
      "name": "setPlayerBookAddress",
      "outputs": [],
      "stateMutability": "nonpayable",
      "type": "function"
    }
  ],
  "bytecode": "0x60806040526000601a5560405162003ae938038062003ae983398181016040528101906200002e919062000410565b336000806101000a81548173ffffffffffffffffffffffffffffffffffffffff021916908373ffffffffffffffffffffffffffffffffffffffff16021790555082600b60006101000a81548173ffffffffffffffffffffffffffffffffffffffff021916908373ffffffffffffffffffffffffffffffffffffffff1602179055506001600d60146101000a81548160ff021916908315150217905550620000da6200025760201b60201c565b6001600681905550601460088190555061012c60098190555060095442620001039190620004a5565b600781905550670de0b6b3a76400006013819055506066601481905550606560158190555080600a60006101000a81548173ffffffffffffffffffffffffffffffffffffffff021916908373ffffffffffffffffffffffffffffffffffffffff160217905550600a6016819055506032601781905550610e10601981905550601e60188190555081600c60006101000a81548173ffffffffffffffffffffffffffffffffffffffff021916908373ffffffffffffffffffffffffffffffffffffffff160217905550600c60009054906101000a900473ffffffffffffffffffffffffffffffffffffffff16600d60006101000a81548173ffffffffffffffffffffffffffffffffffffffff021916908373ffffffffffffffffffffffffffffffffffffffff1602179055506000600e8190555060056010819055506005601281905550600a601181905550505050620005f8565b600d60149054906101000a900460ff16620002a9576040517f08c379a0000000000000000000000000000000000000000000000000000000008152600401620002a09062000589565b60405180910390fd5b60006004819055506000600f8190555060006003819055506000600160006101000a81548173ffffffffffffffffffffffffffffffffffffffff021916908373ffffffffffffffffffffffffffffffffffffffff16021790555060095442620003139190620004a5565b6007819055506000600d60146101000a81548160ff0219169083151502179055506000600281905550600660008154809291906200035190620005ab565b9190505550600e54600381905550565b600080fd5b600073ffffffffffffffffffffffffffffffffffffffff82169050919050565b6000620003938262000366565b9050919050565b620003a58162000386565b8114620003b157600080fd5b50565b600081519050620003c5816200039a565b92915050565b6000620003d88262000366565b9050919050565b620003ea81620003cb565b8114620003f657600080fd5b50565b6000815190506200040a81620003df565b92915050565b6000806000606084860312156200042c576200042b62000361565b5b60006200043c86828701620003b4565b93505060206200044f86828701620003f9565b92505060406200046286828701620003b4565b9150509250925092565b6000819050919050565b7f4e487b7100000000000000000000000000000000000000000000000000000000600052601160045260246000fd5b6000620004b2826200046c565b9150620004bf836200046c565b9250827fffffffffffffffffffffffffffffffffffffffffffffffffffffffffffffffff03821115620004f757620004f662000476565b5b828201905092915050565b600082825260208201905092915050565b7f50726576696f757320726f756e642773207072697a65206d757374206265206360008201527f6c61696d65642066697273740000000000000000000000000000000000000000602082015250565b600062000571602c8362000502565b91506200057e8262000513565b604082019050919050565b60006020820190508181036000830152620005a48162000562565b9050919050565b6000620005b8826200046c565b91507fffffffffffffffffffffffffffffffffffffffffffffffffffffffffffffffff8203620005ed57620005ec62000476565b5b600182019050919050565b6134e180620006086000396000f3fe60806040526004361061026b5760003560e01c8063923bef9211610144578063c5dbeeb9116100b6578063de574c6e1161007a578063de574c6e14610887578063e325ff01146108b0578063e40205d6146108db578063f50d03d214610906578063f7cb789a14610931578063fa65cb041461095c57610272565b8063c5dbeeb9146107c6578063cbfcd11e146107f1578063cd11731d1461081c578063ce70232914610845578063d532ac561461087057610272565b8063abc3a3e811610108578063abc3a3e8146106d5578063ae7b6d1614610700578063b32820e91461072b578063bec19c0014610747578063c05f4c001461075e578063c4bc508e1461078957610272565b8063923bef921461060057806394cbf6151461062b578063997664d7146106565780639f4ba0ee146106815780639fc49c64146106aa57610272565b80634e2786fb116101dd5780637f07e784116101a15780637f07e784146104fe57806383fbce3f1461052957806387865104146105545780638d7537721461057f5780638da5cb5b146105aa5780639042bbf3146105d557610272565b80634e2786fb1461044f57806353014d671461047a578063668038e0146104a557806367dfd884146104bc57806370740ac9146104e757610272565b806332629c451161022f57806332629c451461033d5780634884f78814610368578063488bdabc146103935780634ba2363a146103be5780634bcf8559146103e95780634d56f65f1461042657610272565b806304608e361461027757806311ec4310146102a257806313ecfbfa146102cd5780631ade84c1146102f857806320fcdcee1461031457610272565b3661027257005b600080fd5b34801561028357600080fd5b5061028c610985565b60405161029991906125c5565b60405180910390f35b3480156102ae57600080fd5b506102b761098b565b6040516102c491906125c5565b60405180910390f35b3480156102d957600080fd5b506102e2610991565b6040516102ef9190612621565b60405180910390f35b610312600480360381019061030d91906127c2565b6109b7565b005b34801561032057600080fd5b5061033b6004803603810190610336919061284a565b610be1565b005b34801561034957600080fd5b50610352610c81565b60405161035f9190612621565b60405180910390f35b34801561037457600080fd5b5061037d610ca7565b60405161038a91906125c5565b60405180910390f35b34801561039f57600080fd5b506103a8610cd0565b6040516103b591906125c5565b60405180910390f35b3480156103ca57600080fd5b506103d3610cd6565b6040516103e091906125c5565b60405180910390f35b3480156103f557600080fd5b50610410600480360381019061040b919061288a565b610cdc565b60405161041d91906125c5565b60405180910390f35b34801561043257600080fd5b5061044d600480360381019061044891906128b7565b610d8a565b005b34801561045b57600080fd5b50610464610e49565b60405161047191906125c5565b60405180910390f35b34801561048657600080fd5b5061048f610e4f565b60405161049c91906125c5565b60405180910390f35b3480156104b157600080fd5b506104ba610e55565b005b3480156104c857600080fd5b506104d16111d9565b6040516104de91906125c5565b60405180910390f35b3480156104f357600080fd5b506104fc6111df565b005b34801561050a57600080fd5b5061051361150c565b6040516105209190612991565b60405180910390f35b34801561053557600080fd5b5061053e611532565b60405161054b9190612621565b60405180910390f35b34801561056057600080fd5b50610569611558565b60405161057691906125c5565b60405180910390f35b34801561058b57600080fd5b5061059461155e565b6040516105a191906129cd565b60405180910390f35b3480156105b657600080fd5b506105bf611584565b6040516105cc9190612621565b60405180910390f35b3480156105e157600080fd5b506105ea6115a8565b6040516105f79190612a03565b60405180910390f35b34801561060c57600080fd5b506106156115bb565b60405161062291906125c5565b60405180910390f35b34801561063757600080fd5b506106406115c1565b60405161064d91906125c5565b60405180910390f35b34801561066257600080fd5b5061066b6115c7565b60405161067891906125c5565b60405180910390f35b34801561068d57600080fd5b506106a860048036038101906106a39190612a1e565b6115cd565b005b3480156106b657600080fd5b506106bf611665565b6040516106cc91906125c5565b60405180910390f35b3480156106e157600080fd5b506106ea61166b565b6040516106f791906125c5565b60405180910390f35b34801561070c57600080fd5b50610715611671565b60405161072291906125c5565b60405180910390f35b61074560048036038101906107409190612a1e565b611677565b005b34801561075357600080fd5b5061075c611d1b565b005b34801561076a57600080fd5b50610773611dce565b60405161078091906125c5565b60405180910390f35b34801561079557600080fd5b506107b060048036038101906107ab9190612a1e565b611dd4565b6040516107bd91906125c5565b60405180910390f35b3480156107d257600080fd5b506107db611eba565b6040516107e891906125c5565b60405180910390f35b3480156107fd57600080fd5b50610806611ec4565b60405161081391906125c5565b60405180910390f35b34801561082857600080fd5b50610843600480360381019061083e919061288a565b611eca565b005b34801561085157600080fd5b5061085a611f9c565b60405161086791906125c5565b60405180910390f35b34801561087c57600080fd5b50610885611fa2565b005b34801561089357600080fd5b506108ae60048036038101906108a99190612a77565b61224e565b005b3480156108bc57600080fd5b506108c5612356565b6040516108d291906125c5565b60405180910390f35b3480156108e757600080fd5b506108f06123b7565b6040516108fd91906125c5565b60405180910390f35b34801561091257600080fd5b5061091b6123bd565b60405161092891906125c5565b60405180910390f35b34801561093d57600080fd5b506109466123c3565b60405161095391906125c5565b60405180910390f35b34801561096857600080fd5b50610983600480360381019061097e9190612a1e565b6123c9565b005b600f5481565b60185481565b600160009054906101000a900473ffffffffffffffffffffffffffffffffffffffff1681565b3273ffffffffffffffffffffffffffffffffffffffff163373ffffffffffffffffffffffffffffffffffffffff1614610a25576040517f08c379a0000000000000000000000000000000000000000000000000000000008152600401610a1c90612b27565b60405180910390fd5b670de0b6b3a76400003414610a6f576040517f08c379a0000000000000000000000000000000000000000000000000000000008152600401610a6690612b93565b60405180910390fd5b8073ffffffffffffffffffffffffffffffffffffffff163373ffffffffffffffffffffffffffffffffffffffff1614610add576040517f08c379a0000000000000000000000000000000000000000000000000000000008152600401610ad490612c4b565b60405180910390fd5b600a60009054906101000a900473ffffffffffffffffffffffffffffffffffffffff1673ffffffffffffffffffffffffffffffffffffffff166108fc670de0b6b3a76400009081150290604051600060405180830381858888f19350505050158015610b4d573d6000803e3d6000fd5b50600d60009054906101000a900473ffffffffffffffffffffffffffffffffffffffff1673ffffffffffffffffffffffffffffffffffffffff166332745b6783836040518363ffffffff1660e01b8152600401610bab929190612ce2565b600060405180830381600087803b158015610bc557600080fd5b505af1158015610bd9573d6000803e3d6000fd5b505050505050565b60008054906101000a900473ffffffffffffffffffffffffffffffffffffffff1673ffffffffffffffffffffffffffffffffffffffff163373ffffffffffffffffffffffffffffffffffffffff1614610c6f576040517f08c379a0000000000000000000000000000000000000000000000000000000008152600401610c6690612d84565b60405180910390fd5b81601481905550806015819055505050565b600b60009054906101000a900473ffffffffffffffffffffffffffffffffffffffff1681565b6000600754421015610cc85742600754610cc19190612dd3565b9050610ccd565b600090505b90565b60025481565b60035481565b600080600d60009054906101000a900473ffffffffffffffffffffffffffffffffffffffff1673ffffffffffffffffffffffffffffffffffffffff16632d741372846006546040518363ffffffff1660e01b8152600401610d3e929190612e07565b602060405180830381865afa158015610d5b573d6000803e3d6000fd5b505050506040513d601f19601f82011682018060405250810190610d7f9190612e45565b905080915050919050565b60008054906101000a900473ffffffffffffffffffffffffffffffffffffffff1673ffffffffffffffffffffffffffffffffffffffff163373ffffffffffffffffffffffffffffffffffffffff1614610e18576040517f08c379a0000000000000000000000000000000000000000000000000000000008152600401610e0f90612d84565b60405180910390fd5b8460088190555082601681905550816012819055508360178190555080601181905550816012819055505050505050565b60065481565b60145481565b3273ffffffffffffffffffffffffffffffffffffffff163373ffffffffffffffffffffffffffffffffffffffff1614610ec3576040517f08c379a0000000000000000000000000000000000000000000000000000000008152600401610eba90612b27565b60405180910390fd5b6000600d60009054906101000a900473ffffffffffffffffffffffffffffffffffffffff1673ffffffffffffffffffffffffffffffffffffffff16630f91922b336040518263ffffffff1660e01b8152600401610f209190612621565b602060405180830381865afa158015610f3d573d6000803e3d6000fd5b505050506040513d601f19601f82011682018060405250810190610f619190612e45565b03610fa1576040517f08c379a0000000000000000000000000000000000000000000000000000000008152600401610f9890612ebe565b60405180910390fd5b6000600d60009054906101000a900473ffffffffffffffffffffffffffffffffffffffff1673ffffffffffffffffffffffffffffffffffffffff16630f91922b336040518263ffffffff1660e01b8152600401610ffe9190612621565b602060405180830381865afa15801561101b573d6000803e3d6000fd5b505050506040513d601f19601f8201168201806040525081019061103f9190612e45565b905080600460008282546110539190612dd3565b92505081905550806005600082825461106c9190612dd3565b92505081905550600d60009054906101000a900473ffffffffffffffffffffffffffffffffffffffff1673ffffffffffffffffffffffffffffffffffffffff1663dafc76c733836040518363ffffffff1660e01b81526004016110d0929190612e07565b600060405180830381600087803b1580156110ea57600080fd5b505af11580156110fe573d6000803e3d6000fd5b505050503373ffffffffffffffffffffffffffffffffffffffff166108fc829081150290604051600060405180830381858888f19350505050158015611148573d6000803e3d6000fd5b50600d60009054906101000a900473ffffffffffffffffffffffffffffffffffffffff1673ffffffffffffffffffffffffffffffffffffffff1663a8e01061336040518263ffffffff1660e01b81526004016111a49190612621565b600060405180830381600087803b1580156111be57600080fd5b505af11580156111d2573d6000803e3d6000fd5b5050505050565b60115481565b3273ffffffffffffffffffffffffffffffffffffffff163373ffffffffffffffffffffffffffffffffffffffff161461124d576040517f08c379a000000000000000000000000000000000000000000000000000000000815260040161124490612b27565b60405180910390fd5b600754421015611292576040517f08c379a000000000000000000000000000000000000000000000000000000000815260040161128990612f2a565b60405180910390fd5b600d60149054906101000a900460ff16156112e2576040517f08c379a00000000000000000000000000000000000000000000000000000000081526004016112d990612fbc565b60405180910390fd5b600160009054906101000a900473ffffffffffffffffffffffffffffffffffffffff1673ffffffffffffffffffffffffffffffffffffffff163373ffffffffffffffffffffffffffffffffffffffff1614611372576040517f08c379a00000000000000000000000000000000000000000000000000000000081526004016113699061304e565b60405180910390fd5b6001600d60146101000a81548160ff0219169083151502179055506000606460146003546113a0919061306e565b6113aa91906130f7565b90506000816003546113bc9190612dd3565b90506113c661246c565b600b60009054906101000a900473ffffffffffffffffffffffffffffffffffffffff1673ffffffffffffffffffffffffffffffffffffffff166108fc839081150290604051600060405180830381858888f1935050505015801561142e573d6000803e3d6000fd5b50600160009054906101000a900473ffffffffffffffffffffffffffffffffffffffff1673ffffffffffffffffffffffffffffffffffffffff166108fc829081150290604051600060405180830381858888f19350505050158015611497573d6000803e3d6000fd5b50600160009054906101000a900473ffffffffffffffffffffffffffffffffffffffff1673ffffffffffffffffffffffffffffffffffffffff167f95681e512bc0fe659e195e06c283eada494316f3d801213e48e7101af92bf7708260405161150091906125c5565b60405180910390a25050565b600d60009054906101000a900473ffffffffffffffffffffffffffffffffffffffff1681565b600c60009054906101000a900473ffffffffffffffffffffffffffffffffffffffff1681565b60175481565b600a60009054906101000a900473ffffffffffffffffffffffffffffffffffffffff1681565b60008054906101000a900473ffffffffffffffffffffffffffffffffffffffff1681565b600d60149054906101000a900460ff1681565b60165481565b60125481565b60055481565b60008054906101000a900473ffffffffffffffffffffffffffffffffffffffff1673ffffffffffffffffffffffffffffffffffffffff163373ffffffffffffffffffffffffffffffffffffffff161461165b576040517f08c379a000000000000000000000000000000000000000000000000000000000815260040161165290612d84565b60405180910390fd5b8060138190555050565b60155481565b600e5481565b60085481565b3273ffffffffffffffffffffffffffffffffffffffff163373ffffffffffffffffffffffffffffffffffffffff16146116e5576040517f08c379a00000000000000000000000000000000000000000000000000000000081526004016116dc90612b27565b60405180910390fd5b60006116f082611dd4565b9050803414611734576040517f08c379a000000000000000000000000000000000000000000000000000000000815260040161172b9061319a565b60405180910390fd5b6007544210611746576117456111df565b5b600754421061178a576040517f08c379a000000000000000000000000000000000000000000000000000000000815260040161178190613206565b60405180910390fd5b600060648260175461179c919061306e565b6117a691906130f7565b905060006064600854846117ba919061306e565b6117c491906130f7565b905060006064601154856117d8919061306e565b6117e291906130f7565b905060006064601654866117f6919061306e565b61180091906130f7565b90506000606460125487611814919061306e565b61181e91906130f7565b90506000606460105488611832919061306e565b61183c91906130f7565b905087600260008282546118509190613226565b9250508190555060006118628961256f565b9050600d60009054906101000a900473ffffffffffffffffffffffffffffffffffffffff1673ffffffffffffffffffffffffffffffffffffffff166377448219338b6040518363ffffffff1660e01b81526004016118c1929190612e07565b600060405180830381600087803b1580156118db57600080fd5b505af11580156118ef573d6000803e3d6000fd5b5050505084600460008282546119059190613226565b92505081905550600d60009054906101000a900473ffffffffffffffffffffffffffffffffffffffff1673ffffffffffffffffffffffffffffffffffffffff16638257da9733836040518363ffffffff1660e01b8152600401611969929190612e07565b600060405180830381600087803b15801561198357600080fd5b505af1158015611997573d6000803e3d6000fd5b5050505080600560008282546119ad9190613226565b9250508190555082600f60008282546119c69190613226565b9250508190555081600e60008282546119df9190613226565b9250508190555086600360008282546119f89190613226565b9250508190555033600160006101000a81548173ffffffffffffffffffffffffffffffffffffffff021916908373ffffffffffffffffffffffffffffffffffffffff16021790555060185460076000828254611a549190613226565b92505081905550600d60009054906101000a900473ffffffffffffffffffffffffffffffffffffffff1673ffffffffffffffffffffffffffffffffffffffff1663bc019eed336040518263ffffffff1660e01b8152600401611ab6919061329d565b602060405180830381865afa158015611ad3573d6000803e3d6000fd5b505050506040513d601f19601f82011682018060405250810190611af791906132cd565b73ffffffffffffffffffffffffffffffffffffffff166108fc859081150290604051600060405180830381858888f19350505050158015611b3c573d6000803e3d6000fd5b503073ffffffffffffffffffffffffffffffffffffffff166108fc889081150290604051600060405180830381858888f19350505050158015611b83573d6000803e3d6000fd5b503073ffffffffffffffffffffffffffffffffffffffff166108fc839081150290604051600060405180830381858888f19350505050158015611bca573d6000803e3d6000fd5b503073ffffffffffffffffffffffffffffffffffffffff166108fc849081150290604051600060405180830381858888f19350505050158015611c11573d6000803e3d6000fd5b503073ffffffffffffffffffffffffffffffffffffffff166108fc869081150290604051600060405180830381858888f19350505050158015611c58573d6000803e3d6000fd5b50600b60009054906101000a900473ffffffffffffffffffffffffffffffffffffffff1673ffffffffffffffffffffffffffffffffffffffff166108fc879081150290604051600060405180830381858888f19350505050158015611cc1573d6000803e3d6000fd5b503373ffffffffffffffffffffffffffffffffffffffff167f226015c06d85264c96d322315dda5847b00015b94f0e0619f813b521dea648838a604051611d0891906125c5565b60405180910390a2505050505050505050565b60008054906101000a900473ffffffffffffffffffffffffffffffffffffffff1673ffffffffffffffffffffffffffffffffffffffff163373ffffffffffffffffffffffffffffffffffffffff1614611da9576040517f08c379a0000000000000000000000000000000000000000000000000000000008152600401611da090612d84565b60405180910390fd5b6001600d60146101000a81548160ff021916908315150217905550611dcc61246c565b565b60195481565b600080600090506000611de5612356565b905060ea6002541015611e455760005b84811015611e3a578183611e099190613226565b9250606460145483611e1b919061306e565b611e2591906130f7565b91508080611e32906132fa565b915050611df5565b508192505050611eb5565b60ea600254118015611e5a57506103e8600254105b15611e69578092505050611eb5565b60005b84811015611eb1578183611e809190613226565b9250606460155483611e92919061306e565b611e9c91906130f7565b91508080611ea9906132fa565b915050611e6c565b5050505b919050565b6000600254905090565b60045481565b60008054906101000a900473ffffffffffffffffffffffffffffffffffffffff1673ffffffffffffffffffffffffffffffffffffffff163373ffffffffffffffffffffffffffffffffffffffff1614611f58576040517f08c379a0000000000000000000000000000000000000000000000000000000008152600401611f4f90612d84565b60405180910390fd5b80600c60006101000a81548173ffffffffffffffffffffffffffffffffffffffff021916908373ffffffffffffffffffffffffffffffffffffffff16021790555050565b60135481565b3273ffffffffffffffffffffffffffffffffffffffff163373ffffffffffffffffffffffffffffffffffffffff1614612010576040517f08c379a000000000000000000000000000000000000000000000000000000000815260040161200790612b27565b60405180910390fd5b6000600d60009054906101000a900473ffffffffffffffffffffffffffffffffffffffff1673ffffffffffffffffffffffffffffffffffffffff16631163b68b336040518263ffffffff1660e01b815260040161206d9190612621565b602060405180830381865afa15801561208a573d6000803e3d6000fd5b505050506040513d601f19601f820116820180604052508101906120ae9190612e45565b036120ee576040517f08c379a00000000000000000000000000000000000000000000000000000000081526004016120e5906133b4565b60405180910390fd5b600754421015612133576040517f08c379a000000000000000000000000000000000000000000000000000000000815260040161212a90613206565b60405180910390fd5b6007544210612145576121446111df565b5b6000600d60009054906101000a900473ffffffffffffffffffffffffffffffffffffffff1673ffffffffffffffffffffffffffffffffffffffff16631163b68b336040518263ffffffff1660e01b81526004016121a29190612621565b602060405180830381865afa1580156121bf573d6000803e3d6000fd5b505050506040513d601f19601f820116820180604052508101906121e39190612e45565b90506000606482600f546121f7919061306e565b61220191906130f7565b90503373ffffffffffffffffffffffffffffffffffffffff166108fc829081150290604051600060405180830381858888f19350505050158015612249573d6000803e3d6000fd5b505050565b3273ffffffffffffffffffffffffffffffffffffffff163373ffffffffffffffffffffffffffffffffffffffff16146122bc576040517f08c379a00000000000000000000000000000000000000000000000000000000081526004016122b390612b27565b60405180910390fd5b600d60009054906101000a900473ffffffffffffffffffffffffffffffffffffffff1673ffffffffffffffffffffffffffffffffffffffff166374667ddf8484846006546040518563ffffffff1660e01b815260040161231f94939291906133d4565b600060405180830381600087803b15801561233957600080fd5b505af115801561234d573d6000803e3d6000fd5b50505050505050565b6000806003540361236b5760135490506123b4565b6000601354905060005b6002548110156123ae5760646014548361238f919061306e565b61239991906130f7565b915080806123a6906132fa565b915050612375565b50809150505b90565b60075481565b60105481565b60095481565b60008054906101000a900473ffffffffffffffffffffffffffffffffffffffff1673ffffffffffffffffffffffffffffffffffffffff163373ffffffffffffffffffffffffffffffffffffffff1614612457576040517f08c379a000000000000000000000000000000000000000000000000000000000815260040161244e90612d84565b60405180910390fd5b80426124639190613226565b60078190555050565b600d60149054906101000a900460ff166124bb576040517f08c379a00000000000000000000000000000000000000000000000000000000081526004016124b29061348b565b60405180910390fd5b60006004819055506000600f8190555060006003819055506000600160006101000a81548173ffffffffffffffffffffffffffffffffffffffff021916908373ffffffffffffffffffffffffffffffffffffffff160217905550600954426125239190613226565b6007819055506000600d60146101000a81548160ff02191690831515021790555060006002819055506006600081548092919061255f906132fa565b9190505550600e54600381905550565b6000806002540361258357600090506125a7565b600060025483600454612596919061306e565b6125a091906130f7565b9050809150505b919050565b6000819050919050565b6125bf816125ac565b82525050565b60006020820190506125da60008301846125b6565b92915050565b600073ffffffffffffffffffffffffffffffffffffffff82169050919050565b600061260b826125e0565b9050919050565b61261b81612600565b82525050565b60006020820190506126366000830184612612565b92915050565b6000604051905090565b600080fd5b600080fd5b600080fd5b600080fd5b6000601f19601f8301169050919050565b7f4e487b7100000000000000000000000000000000000000000000000000000000600052604160045260246000fd5b6126a38261265a565b810181811067ffffffffffffffff821117156126c2576126c161266b565b5b80604052505050565b60006126d561263c565b90506126e1828261269a565b919050565b600067ffffffffffffffff8211156127015761270061266b565b5b61270a8261265a565b9050602081019050919050565b82818337600083830152505050565b6000612739612734846126e6565b6126cb565b90508281526020810184848401111561275557612754612655565b5b612760848285612717565b509392505050565b600082601f83011261277d5761277c612650565b5b813561278d848260208601612726565b91505092915050565b61279f81612600565b81146127aa57600080fd5b50565b6000813590506127bc81612796565b92915050565b600080604083850312156127d9576127d8612646565b5b600083013567ffffffffffffffff8111156127f7576127f661264b565b5b61280385828601612768565b9250506020612814858286016127ad565b9150509250929050565b612827816125ac565b811461283257600080fd5b50565b6000813590506128448161281e565b92915050565b6000806040838503121561286157612860612646565b5b600061286f85828601612835565b925050602061288085828601612835565b9150509250929050565b6000602082840312156128a05761289f612646565b5b60006128ae848285016127ad565b91505092915050565b600080600080600060a086880312156128d3576128d2612646565b5b60006128e188828901612835565b95505060206128f288828901612835565b945050604061290388828901612835565b935050606061291488828901612835565b925050608061292588828901612835565b9150509295509295909350565b6000819050919050565b600061295761295261294d846125e0565b612932565b6125e0565b9050919050565b60006129698261293c565b9050919050565b600061297b8261295e565b9050919050565b61298b81612970565b82525050565b60006020820190506129a66000830184612982565b92915050565b60006129b7826125e0565b9050919050565b6129c7816129ac565b82525050565b60006020820190506129e260008301846129be565b92915050565b60008115159050919050565b6129fd816129e8565b82525050565b6000602082019050612a1860008301846129f4565b92915050565b600060208284031215612a3457612a33612646565b5b6000612a4284828501612835565b91505092915050565b612a54816129ac565b8114612a5f57600080fd5b50565b600081359050612a7181612a4b565b92915050565b600080600060608486031215612a9057612a8f612646565b5b6000612a9e86828701612835565b9350506020612aaf86828701612a62565b9250506040612ac086828701612a62565b9150509250925092565b600082825260208201905092915050565b7f4e6f20636f6e7472616374730000000000000000000000000000000000000000600082015250565b6000612b11600c83612aca565b9150612b1c82612adb565b602082019050919050565b60006020820190508181036000830152612b4081612b04565b9050919050565b7f5468652070726963652069732031204554480000000000000000000000000000600082015250565b6000612b7d601283612aca565b9150612b8882612b47565b602082019050919050565b60006020820190508181036000830152612bac81612b70565b9050919050565b7f596f752063616e6e6f74206275792076616e697479206e616d657320666f722060008201527f6120646966666572656e7420616464726573732c2031204554482f76616e697460208201527f7900000000000000000000000000000000000000000000000000000000000000604082015250565b6000612c35604183612aca565b9150612c4082612bb3565b606082019050919050565b60006020820190508181036000830152612c6481612c28565b9050919050565b600081519050919050565b60005b83811015612c94578082015181840152602081019050612c79565b83811115612ca3576000848401525b50505050565b6000612cb482612c6b565b612cbe8185612aca565b9350612cce818560208601612c76565b612cd78161265a565b840191505092915050565b60006040820190508181036000830152612cfc8185612ca9565b9050612d0b6020830184612612565b9392505050565b7f4f6e6c792074686520636f6e7472616374206f776e65722063616e2063616c6c60008201527f20746869732066756e6374696f6e000000000000000000000000000000000000602082015250565b6000612d6e602e83612aca565b9150612d7982612d12565b604082019050919050565b60006020820190508181036000830152612d9d81612d61565b9050919050565b7f4e487b7100000000000000000000000000000000000000000000000000000000600052601160045260246000fd5b6000612dde826125ac565b9150612de9836125ac565b925082821015612dfc57612dfb612da4565b5b828203905092915050565b6000604082019050612e1c6000830185612612565b612e2960208301846125b6565b9392505050565b600081519050612e3f8161281e565b92915050565b600060208284031215612e5b57612e5a612646565b5b6000612e6984828501612e30565b91505092915050565b7f596f752068617665206e6f2064697669657320746f20636c61696d203a280000600082015250565b6000612ea8601e83612aca565b9150612eb382612e72565b602082019050919050565b60006020820190508181036000830152612ed781612e9b565b9050919050565b7f54686520726f756e6420686173206e6f7420656e646564207965740000000000600082015250565b6000612f14601b83612aca565b9150612f1f82612ede565b602082019050919050565b60006020820190508181036000830152612f4381612f07565b9050919050565b7f5072697a6520666f72207468652063757272656e7420726f756e64206861732060008201527f616c7265616479206265656e20636c61696d6564000000000000000000000000602082015250565b6000612fa6603483612aca565b9150612fb182612f4a565b604082019050919050565b60006020820190508181036000830152612fd581612f99565b9050919050565b7f4f6e6c7920746865206c6173742062757965722063616e20636c61696d20746860008201527f65207072697a6500000000000000000000000000000000000000000000000000602082015250565b6000613038602783612aca565b915061304382612fdc565b604082019050919050565b600060208201905081810360008301526130678161302b565b9050919050565b6000613079826125ac565b9150613084836125ac565b9250817fffffffffffffffffffffffffffffffffffffffffffffffffffffffffffffffff04831182151516156130bd576130bc612da4565b5b828202905092915050565b7f4e487b7100000000000000000000000000000000000000000000000000000000600052601260045260246000fd5b6000613102826125ac565b915061310d836125ac565b92508261311d5761311c6130c8565b5b828204905092915050565b7f506c656173652073656e642074686520726967687420616d6f756e74206f662060008201527f457468657220746f207075726368617365206b65792873290000000000000000602082015250565b6000613184603883612aca565b915061318f82613128565b604082019050919050565b600060208201905081810360008301526131b381613177565b9050919050565b7f54686520726f756e642068617320656e64656400000000000000000000000000600082015250565b60006131f0601383612aca565b91506131fb826131ba565b602082019050919050565b6000602082019050818103600083015261321f816131e3565b9050919050565b6000613231826125ac565b915061323c836125ac565b9250827fffffffffffffffffffffffffffffffffffffffffffffffffffffffffffffffff0382111561327157613270612da4565b5b828201905092915050565b60006132878261295e565b9050919050565b6132978161327c565b82525050565b60006020820190506132b2600083018461328e565b92915050565b6000815190506132c781612796565b92915050565b6000602082840312156132e3576132e2612646565b5b60006132f1848285016132b8565b91505092915050565b6000613305826125ac565b91507fffffffffffffffffffffffffffffffffffffffffffffffffffffffffffffffff820361333757613336612da4565b5b600182019050919050565b7f736f727279206672656e2c20796f752068617665206e6f206b6579732c206e6f60008201527f2064697669657320617661696c61626c65203a28000000000000000000000000602082015250565b600061339e603483612aca565b91506133a982613342565b604082019050919050565b600060208201905081810360008301526133cd81613391565b9050919050565b60006080820190506133e960008301876125b6565b6133f660208301866129be565b61340360408301856129be565b61341060608301846125b6565b95945050505050565b7f50726576696f757320726f756e642773207072697a65206d757374206265206360008201527f6c61696d65642066697273740000000000000000000000000000000000000000602082015250565b6000613475602c83612aca565b915061348082613419565b604082019050919050565b600060208201905081810360008301526134a481613468565b905091905056fea26469706673582212203948cf2a82e8fa19f3279cc0680ea119a64a28b5458a26f293aa4c56240fee5964736f6c634300080d0033",
  "immutableReferences": {},
  "source": "// SPDX-License-Identifier: MIT\npragma solidity ^0.8.0;\nimport \"./Rounds.sol\";\nimport \"./Players.sol\";\n\ncontract FomoPhoenix {\n    address public owner;\n    address public lastBuyer;\n    uint256 public totalKeys;\n    uint256 public pot;\n    uint256 public diviePot;\n    uint256 public totalDividends;\n    uint256 public roundNumber;\n    uint256 public roundEndTime;\n    uint256 public taxPercentage;\n    uint256 public roundDuration;\n    address payable public defaultRefAddress;\n    address public noExpectationsWallet; // Address to receive 20% of the pot\n    address public playerBookAddress;\n    PlayersBook public playersBook;\n    bool public prizeClaimed;\n    uint256 public nextRoundsPot;\n    uint256 public endSidePot;\n    uint256 public nextRoundTaxRate;\n    uint256 public diviePotTaxRate;\n    uint256 public endSidePotTaxRate;\n    // Custom formulas (You can modify these as per your requirements)\n    uint256 public initialKeyPrice;\n    uint256 public priceIncreaseRate;\n    uint256 public priceIncreaseRateTwo;\n    uint256 public affiliateRate;\n    uint256 public potContributionRate;\n    uint256 public timerExtension;\n    uint256 public roundIntermission;\n    //constant for the calcs\n\n    uint256 private nonce = 0; // This nonce gets incremented on each request, ensuring every result is unique\n\n    //mappings for the core game\n\n    event KeyPurchased(address indexed buyer, uint256 amount);\n    event PrizeClaimed(address indexed winner, uint256 amount);\n    event Log(string message, uint256 value);\n    modifier isHuman() {\n        require(msg.sender == tx.origin, \"No contracts\");\n        _;\n    }\n    modifier onlyOwner() {\n        require(\n            msg.sender == owner,\n            \"Only the contract owner can call this function\"\n        );\n        _;\n    }\n\n    constructor(\n        address payable _noExpectationsWallet,\n        address _playerBookAddress,\n        address payable _defaultRefAddress\n    ) payable {\n        owner = msg.sender;\n        noExpectationsWallet = _noExpectationsWallet;\n        prizeClaimed = true; // Set to true initially to allow the first round to be started\n        startNewRound();\n        roundNumber = 1;\n        taxPercentage = 20; // 5% tax on each key purchase\n        roundDuration = 5 minutes;\n        roundEndTime = block.timestamp + roundDuration;\n        initialKeyPrice = 1 ether; //this should be 10,000PLS per key on pulsechain\n        priceIncreaseRate = 102;\n        priceIncreaseRateTwo = 101;\n        defaultRefAddress = _defaultRefAddress;\n        affiliateRate = 10;\n        potContributionRate = 50;\n        roundIntermission = 1 hours;\n        timerExtension = 30 seconds;\n        playerBookAddress = _playerBookAddress;\n        playersBook = PlayersBook(playerBookAddress);\n        nextRoundsPot = 0;\n        nextRoundTaxRate = 5;\n        endSidePotTaxRate = 5;\n        diviePotTaxRate = 10;\n    }\n\n    receive() external payable {}\n\n    function startNewRound() private {\n        require(prizeClaimed, \"Previous round's prize must be claimed first\");\n        diviePot = 0;\n        endSidePot = 0;\n        pot = 0;\n        lastBuyer = address(0);\n        roundEndTime = block.timestamp + roundDuration;\n        prizeClaimed = false; // Reset prizeClaimed for the new round\n        totalKeys = 0;\n        roundNumber++;\n        pot = nextRoundsPot;\n        //add round struct and add stats for round, and clear player keys and dividend\n    }\n\n    function calculateTotalPrice(uint256 numKeysToPurchase)\n        public\n        view\n        returns (uint256)\n    {\n        // Initialize the current price and total price\n        uint256 totalPrice = 0;\n        uint256 currentPrice = calculateKeyPrice();\n\n        // Add the price of each key to the total price\n        if (totalKeys < 234) {\n            for (uint256 i = 0; i < numKeysToPurchase; i++) {\n                totalPrice += currentPrice;\n\n                // Increase the price for the next key\n                currentPrice = (currentPrice * priceIncreaseRate) / 100;\n            }\n            return totalPrice;\n        } else if (totalKeys > 234 && totalKeys < 1000) {\n            return currentPrice;\n        } else {\n            for (uint256 i = 0; i < numKeysToPurchase; i++) {\n                totalPrice += currentPrice;\n\n                // Increase the price for the next key\n                currentPrice = (currentPrice * priceIncreaseRateTwo) / 100;\n            }\n        }\n    }\n\n    function calculateKeyPrice() public view returns (uint256) {\n        if (pot == 0) {\n            return initialKeyPrice;\n        } else {\n            // Calculate the price based on the previous key price and the price increase rate\n            // return (initialKeyPrice * priceIncreaseRate) / 100;\n            uint256 price = initialKeyPrice;\n            for (uint256 i = 0; i < totalKeys; i++) {\n                price = (price * priceIncreaseRate) / 100;\n            }\n\n            return price;\n        }\n    }\n\n    function registerPlayer(\n        uint256 referralCode,\n        address payable affAddress,\n        address payable playerAddress\n    ) external isHuman {\n        playersBook.registerPlayerInfo(\n            referralCode,\n            payable(affAddress),\n            payable(playerAddress),\n            roundNumber\n        );\n    }\n\n    function buyKeys(uint256 numberOfKeys) external payable isHuman {\n        uint256 totalPrice = calculateTotalPrice(numberOfKeys);\n        require(\n            msg.value == totalPrice,\n            \"Please send the right amount of Ether to purchase key(s)\"\n        );\n        if (block.timestamp >= roundEndTime) {\n            claimPrize(); // Automatically claim the prize and start the next round\n        }\n        require(block.timestamp < roundEndTime, \"The round has ended\");\n        // require(msg.value > 0, \"You must send some Ether to buy a key\");\n        //state\n\n        uint256 potContribution = (potContributionRate * totalPrice) / 100;\n        uint256 taxAmount = (totalPrice * taxPercentage) / 100;\n        uint256 diviePotContribution = (totalPrice * diviePotTaxRate) / 100;\n        uint256 affiliateFee = (totalPrice * affiliateRate) / 100;\n        uint256 endSidePotContribution = (totalPrice * endSidePotTaxRate) / 100;\n        uint256 nextRoundPotContribution = (totalPrice * nextRoundTaxRate) /\n            100;\n        totalKeys += numberOfKeys;\n        uint256 dividends = calculateDividends(numberOfKeys);\n        playersBook.addKeysBought(msg.sender, numberOfKeys);\n\n        //airdrop update/calculations\n        diviePot += diviePotContribution; // 1% of each transaction goes to the airdrop pot\n\n        //update diviess\n        playersBook.addDividendsEarned(msg.sender, dividends);\n        totalDividends += dividends;\n\n        // Update the pot and last buyer\n        endSidePot += endSidePotContribution;\n        nextRoundsPot += nextRoundPotContribution;\n        pot += potContribution;\n        lastBuyer = msg.sender;\n\n        // Extend the timer for each key purchase\n\n        roundEndTime += timerExtension; // 30 minutes extended to the timer for each key purchase\n\n        //transfers\n        payable(playersBook.getAffiliate(payable(msg.sender))).transfer(\n            affiliateFee\n        );\n        payable(address(this)).transfer(potContribution);\n        payable(address(this)).transfer(nextRoundPotContribution);\n        payable(address(this)).transfer(endSidePotContribution);\n        payable(address(this)).transfer(diviePotContribution);\n        payable(noExpectationsWallet).transfer(taxAmount);\n\n        // Emit event\n        emit KeyPurchased(msg.sender, numberOfKeys);\n    }\n\n    function getTotalKeysBought() public view returns (uint256) {\n        return totalKeys;\n    }\n\n    function getNumKeysBought(address keyHolderAddress)\n        external\n        view\n        returns (uint256)\n    {\n        // Calculate the number of keys bought (excluding the current purchase)\n\n        uint256 totalKeysBought = playersBook.getPlayerKeys(keyHolderAddress, roundNumber);\n        return totalKeysBought;\n    }\n    \n    function calculateDividends(uint256 numOfKeys)\n        internal\n        view\n        returns (uint256)\n    {\n        if (totalKeys == 0) {\n            return 0;\n        }\n        // Calculate the dividends based on the number of keys\n        // The dividends are a percentage of the total pot proportional to the percentage of keys the user owns\n        uint256 dividends = (diviePot * numOfKeys) / totalKeys;\n        return dividends;\n    }\n\n    function claimSidePot() external isHuman {\n        require(\n            playersBook.getTotalPlayerKeys(msg.sender) != 0,\n            \"sorry fren, you have no keys, no divies available :(\"\n        );\n        require(block.timestamp >= roundEndTime, \"The round has ended\");\n\n        if (block.timestamp >= roundEndTime) {\n            claimPrize(); // Automatically claim the prize and start the next round\n        }\n        uint256 totalPlayerKeys = playersBook.getTotalPlayerKeys(msg.sender);\n        uint256 endSidePotShare = (endSidePot * totalPlayerKeys) / 100;\n        payable(address(msg.sender)).transfer(endSidePotShare);\n    }\n\n    function claimDividends() external isHuman {\n        require(\n            playersBook.getDividendsEarned(msg.sender) != 0,\n            \"You have no divies to claim :(\"\n        );\n        // Calculate the dividends for the caller\n        uint256 dividends = playersBook.getDividendsEarned(msg.sender);\n\n        // Subtract the dividends from the total dividends\n        diviePot -= dividends;\n        totalDividends -= dividends;\n\n        playersBook.addClaimedDividends(msg.sender, dividends);\n        // Transfer the dividends to the caller\n        payable(msg.sender).transfer(dividends);\n        playersBook.wipeDivies(msg.sender);\n    }\n\n    function setTotalTax(\n        uint256 taxAmount,\n        uint256 potFee,\n        uint256 affiliateFee,\n        uint256 endSidePotFee,\n        uint256 diviePotFee\n    ) external onlyOwner {\n        taxPercentage = taxAmount;\n        affiliateRate = affiliateFee;\n        endSidePotTaxRate = endSidePotFee;\n        potContributionRate = potFee;\n        diviePotTaxRate = diviePotFee;\n        endSidePotTaxRate = endSidePotFee;\n    }\n\n    function setPriceIncreaseRate(uint256 newRate, uint256 newRateTwo)\n        external\n        onlyOwner\n    {\n        priceIncreaseRate = newRate;\n        priceIncreaseRateTwo = newRateTwo;\n    }\n\n    function setInitialPrice(uint256 price) external onlyOwner {\n        initialKeyPrice = price;\n    }\n\n    function claimPrize() public isHuman {\n        require(block.timestamp >= roundEndTime, \"The round has not ended yet\");\n        require(\n            !prizeClaimed,\n            \"Prize for the current round has already been claimed\"\n        );\n        require(\n            msg.sender == lastBuyer,\n            \"Only the last buyer can claim the prize\"\n        );\n\n        // Calculate the amounts to send\n        prizeClaimed = true;\n        uint256 noExpectationsAmount = (pot * 20) / 100;\n        uint256 winnerPrize = pot - noExpectationsAmount;\n\n        // Reset the game for the next round\n        startNewRound();\n\n        // Send the prizes\n        payable(noExpectationsWallet).transfer(noExpectationsAmount);\n        payable(lastBuyer).transfer(winnerPrize);\n\n        // Emit event\n        emit PrizeClaimed(lastBuyer, winnerPrize);\n    }\n\n    function getCurrentTimeLeft() external view returns (uint256) {\n        if (block.timestamp < roundEndTime) {\n            return roundEndTime - block.timestamp;\n        } else {\n            return 0;\n        }\n    }\n\n    function purchaseVanity(string memory vanity, address playerAddress)\n        external\n        payable\n        isHuman\n    {\n        require(msg.value == 1 ether, \"The price is 1 ETH\");\n        require(msg.sender == playerAddress, \"You cannot buy vanity names for a different address, 1 ETH/vanity\");\n        payable(defaultRefAddress).transfer(1 ether);\n        playersBook.purchaseVanityName(vanity, playerAddress);\n    }\n\n    function forceStartNewRound() external onlyOwner {\n        prizeClaimed = true;\n        startNewRound();\n    }\n\n    function setRoundTime(uint256 duration) external onlyOwner {\n        roundEndTime = block.timestamp + duration;\n    }\n\n    function setPlayerBookAddress(address playerBook) external onlyOwner {\n        playerBookAddress = playerBook;\n    }\n}\n",
  "sourcePath": "/home/jeremy/Desktop/blockchain-projects/fomo3dphoenix/contracts/FomoPLSRevival.sol",
  "compiler": {
    "name": "solc",
    "version": "0.8.13+commit.abaa5c0e.Emscripten.clang"
  },
  "schemaVersion": "3.4.14",
  "updatedAt": "2023-08-01T11:12:47.095Z",
  "devdoc": {
    "kind": "dev",
    "methods": {},
    "version": 1
  },
  "userdoc": {
    "kind": "user",
    "methods": {},
    "version": 1
  }
}