{
  "contractName": "PlayersBook",
  "abi": [
    {
      "inputs": [
        {
          "internalType": "address",
          "name": "_owner",
          "type": "address"
        },
        {
          "internalType": "address payable",
          "name": "_payAddress",
          "type": "address"
        }
      ],
      "stateMutability": "nonpayable",
      "type": "constructor"
    },
    {
      "anonymous": false,
      "inputs": [
        {
          "indexed": true,
          "internalType": "address",
          "name": "player",
          "type": "address"
        },
        {
          "indexed": true,
          "internalType": "address",
          "name": "affiliate",
          "type": "address"
        },
        {
          "indexed": false,
          "internalType": "uint256",
          "name": "playerId",
          "type": "uint256"
        }
      ],
      "name": "PlayerRegistered",
      "type": "event"
    },
    {
      "anonymous": false,
      "inputs": [
        {
          "indexed": true,
          "internalType": "address",
          "name": "player",
          "type": "address"
        },
        {
          "indexed": false,
          "internalType": "string",
          "name": "vanityName",
          "type": "string"
        }
      ],
      "name": "VanityNamePurchased",
      "type": "event"
    },
    {
      "inputs": [
        {
          "internalType": "address",
          "name": "",
          "type": "address"
        }
      ],
      "name": "isPlayerAdded",
      "outputs": [
        {
          "internalType": "bool",
          "name": "",
          "type": "bool"
        }
      ],
      "stateMutability": "view",
      "type": "function"
    },
    {
      "inputs": [
        {
          "internalType": "uint256",
          "name": "",
          "type": "uint256"
        }
      ],
      "name": "playerAddresses",
      "outputs": [
        {
          "internalType": "address payable",
          "name": "",
          "type": "address"
        }
      ],
      "stateMutability": "view",
      "type": "function"
    },
    {
      "inputs": [
        {
          "internalType": "address",
          "name": "",
          "type": "address"
        }
      ],
      "name": "players",
      "outputs": [
        {
          "internalType": "uint256",
          "name": "referralCode",
          "type": "uint256"
        },
        {
          "internalType": "address payable",
          "name": "affiliate",
          "type": "address"
        },
        {
          "internalType": "uint256",
          "name": "keysOwned",
          "type": "uint256"
        },
        {
          "internalType": "uint256",
          "name": "dividendsClaimed",
          "type": "uint256"
        },
        {
          "internalType": "uint256",
          "name": "dividendsEarned",
          "type": "uint256"
        },
        {
          "internalType": "uint256",
          "name": "round",
          "type": "uint256"
        }
      ],
      "stateMutability": "view",
      "type": "function"
    },
    {
      "inputs": [
        {
          "internalType": "address",
          "name": "contractAddress",
          "type": "address"
        }
      ],
      "name": "setAllowedContractAddress",
      "outputs": [],
      "stateMutability": "nonpayable",
      "type": "function"
    },
    {
      "inputs": [
        {
          "internalType": "uint256",
          "name": "refCode",
          "type": "uint256"
        },
        {
          "internalType": "address payable",
          "name": "affAddress",
          "type": "address"
        },
        {
          "internalType": "address payable",
          "name": "playerAddress",
          "type": "address"
        },
        {
          "internalType": "uint256",
          "name": "currentRound",
          "type": "uint256"
        }
      ],
      "name": "registerPlayerInfo",
      "outputs": [],
      "stateMutability": "nonpayable",
      "type": "function"
    },
    {
      "inputs": [
        {
          "internalType": "string",
          "name": "vanityName",
          "type": "string"
        },
        {
          "internalType": "address",
          "name": "playerAddress",
          "type": "address"
        }
      ],
      "name": "purchaseVanityName",
      "outputs": [],
      "stateMutability": "nonpayable",
      "type": "function"
    },
    {
      "inputs": [
        {
          "internalType": "address",
          "name": "player",
          "type": "address"
        }
      ],
      "name": "getPlayersReferralCode",
      "outputs": [
        {
          "internalType": "uint256",
          "name": "",
          "type": "uint256"
        }
      ],
      "stateMutability": "view",
      "type": "function"
    },
    {
      "inputs": [
        {
          "internalType": "address",
          "name": "player",
          "type": "address"
        }
      ],
      "name": "getAffiliate",
      "outputs": [
        {
          "internalType": "address",
          "name": "",
          "type": "address"
        }
      ],
      "stateMutability": "view",
      "type": "function"
    },
    {
      "inputs": [
        {
          "internalType": "address",
          "name": "player",
          "type": "address"
        }
      ],
      "name": "getVanityNames",
      "outputs": [
        {
          "internalType": "string[]",
          "name": "",
          "type": "string[]"
        }
      ],
      "stateMutability": "view",
      "type": "function"
    },
    {
      "inputs": [
        {
          "internalType": "uint256",
          "name": "startIndex",
          "type": "uint256"
        },
        {
          "internalType": "uint256",
          "name": "count",
          "type": "uint256"
        }
      ],
      "name": "getPlayers",
      "outputs": [
        {
          "internalType": "address[]",
          "name": "",
          "type": "address[]"
        }
      ],
      "stateMutability": "view",
      "type": "function"
    },
    {
      "inputs": [
        {
          "internalType": "address",
          "name": "playerAddress",
          "type": "address"
        },
        {
          "internalType": "uint256",
          "name": "currentRound",
          "type": "uint256"
        }
      ],
      "name": "getPlayerKeys",
      "outputs": [
        {
          "internalType": "uint256",
          "name": "",
          "type": "uint256"
        }
      ],
      "stateMutability": "view",
      "type": "function"
    },
    {
      "inputs": [
        {
          "internalType": "address",
          "name": "playerAddress",
          "type": "address"
        }
      ],
      "name": "getPlayer",
      "outputs": [
        {
          "components": [
            {
              "internalType": "uint256",
              "name": "referralCode",
              "type": "uint256"
            },
            {
              "internalType": "address payable",
              "name": "affiliate",
              "type": "address"
            },
            {
              "internalType": "string[]",
              "name": "vanityNames",
              "type": "string[]"
            },
            {
              "internalType": "uint256",
              "name": "keysOwned",
              "type": "uint256"
            },
            {
              "internalType": "uint256",
              "name": "dividendsClaimed",
              "type": "uint256"
            },
            {
              "internalType": "uint256",
              "name": "dividendsEarned",
              "type": "uint256"
            },
            {
              "internalType": "uint256",
              "name": "round",
              "type": "uint256"
            }
          ],
          "internalType": "struct PlayersBook.Player",
          "name": "",
          "type": "tuple"
        }
      ],
      "stateMutability": "view",
      "type": "function"
    },
    {
      "inputs": [
        {
          "internalType": "address",
          "name": "playerAddress",
          "type": "address"
        },
        {
          "internalType": "string",
          "name": "vanityName",
          "type": "string"
        }
      ],
      "name": "addVanityName",
      "outputs": [],
      "stateMutability": "nonpayable",
      "type": "function"
    },
    {
      "inputs": [
        {
          "internalType": "address",
          "name": "playerAddress",
          "type": "address"
        },
        {
          "internalType": "uint256",
          "name": "playerDivies",
          "type": "uint256"
        }
      ],
      "name": "addClaimedDividends",
      "outputs": [],
      "stateMutability": "nonpayable",
      "type": "function"
    },
    {
      "inputs": [
        {
          "internalType": "address",
          "name": "playerAddress",
          "type": "address"
        }
      ],
      "name": "getDividendsEarned",
      "outputs": [
        {
          "internalType": "uint256",
          "name": "",
          "type": "uint256"
        }
      ],
      "stateMutability": "view",
      "type": "function"
    },
    {
      "inputs": [
        {
          "internalType": "address",
          "name": "playerAddress",
          "type": "address"
        },
        {
          "internalType": "uint256",
          "name": "dividendAmt",
          "type": "uint256"
        }
      ],
      "name": "addDividendsEarned",
      "outputs": [],
      "stateMutability": "nonpayable",
      "type": "function"
    },
    {
      "inputs": [
        {
          "internalType": "address",
          "name": "playerAddress",
          "type": "address"
        }
      ],
      "name": "wipeDivies",
      "outputs": [],
      "stateMutability": "nonpayable",
      "type": "function"
    },
    {
      "inputs": [
        {
          "internalType": "address",
          "name": "playerAddress",
          "type": "address"
        }
      ],
      "name": "getTotalPlayerKeys",
      "outputs": [
        {
          "internalType": "uint256",
          "name": "",
          "type": "uint256"
        }
      ],
      "stateMutability": "view",
      "type": "function"
    },
    {
      "inputs": [
        {
          "internalType": "address",
          "name": "playerAddress",
          "type": "address"
        },
        {
          "internalType": "uint256",
          "name": "playerKeys",
          "type": "uint256"
        }
      ],
      "name": "addKeysBought",
      "outputs": [],
      "stateMutability": "nonpayable",
      "type": "function"
    }
  ],
  "bytecode": "0x608060405260016005553480156200001657600080fd5b5060405162002c2b38038062002c2b83398181016040528101906200003c919062000175565b81600660006101000a81548173ffffffffffffffffffffffffffffffffffffffff021916908373ffffffffffffffffffffffffffffffffffffffff16021790555080600160006101000a81548173ffffffffffffffffffffffffffffffffffffffff021916908373ffffffffffffffffffffffffffffffffffffffff1602179055505050620001bc565b600080fd5b600073ffffffffffffffffffffffffffffffffffffffff82169050919050565b6000620000f882620000cb565b9050919050565b6200010a81620000eb565b81146200011657600080fd5b50565b6000815190506200012a81620000ff565b92915050565b60006200013d82620000cb565b9050919050565b6200014f8162000130565b81146200015b57600080fd5b50565b6000815190506200016f8162000144565b92915050565b600080604083850312156200018f576200018e620000c6565b5b60006200019f8582860162000119565b9250506020620001b2858286016200015e565b9150509250929050565b612a5f80620001cc6000396000f3fe608060405234801561001057600080fd5b50600436106101215760003560e01c806374667ddf116100ad578063a8e0106111610071578063a8e010611461034e578063bb69df4a1461036a578063bc019eed1461039a578063dafc76c7146103ca578063e2eb41ff146103e657610121565b806374667ddf146102c257806377448219146102de5780637afb819c146102fa5780638257da9714610316578063918e66f11461033257610121565b80632d741372116100f45780632d741372146101e65780632ea1baa61461021657806332745b671461024657806354eefd63146102625780635c12cd4b1461029257610121565b80630d2dce22146101265780630f91922b146101565780631163b68b1461018657806315c6aee2146101b6575b600080fd5b610140600480360381019061013b9190611db9565b61041b565b60405161014d9190611ee9565b60405180910390f35b610170600480360381019061016b9190611f37565b6105a5565b60405161017d9190611f73565b60405180910390f35b6101a0600480360381019061019b9190611f37565b6105f1565b6040516101ad9190611f73565b60405180910390f35b6101d060048036038101906101cb9190611f8e565b61063d565b6040516101dd9190611fdc565b60405180910390f35b61020060048036038101906101fb9190611ff7565b61067c565b60405161020d9190611f73565b60405180910390f35b610230600480360381019061022b9190611f37565b610850565b60405161023d9190611f73565b60405180910390f35b610260600480360381019061025b919061217d565b61089c565b005b61027c60048036038101906102779190611f37565b610ad5565b6040516102899190612323565b60405180910390f35b6102ac60048036038101906102a79190611f37565b610bf0565b6040516102b99190612485565b60405180910390f35b6102dc60048036038101906102d791906124d3565b610daa565b005b6102f860048036038101906102f39190611ff7565b611344565b005b610314600480360381019061030f919061253a565b611487565b005b610330600480360381019061032b9190611ff7565b6115ed565b005b61034c60048036038101906103479190611f37565b611730565b005b61036860048036038101906103639190611f37565b611859565b005b610384600480360381019061037f9190611f37565b61198a565b60405161039191906125b1565b60405180910390f35b6103b460048036038101906103af9190611f37565b6119aa565b6040516103c191906125db565b60405180910390f35b6103e460048036038101906103df9190611ff7565b611a16565b005b61040060048036038101906103fb9190611f37565b611b59565b604051610412969594939291906125f6565b60405180910390f35b60606002805490508310610464576040517f08c379a000000000000000000000000000000000000000000000000000000000815260040161045b906126b4565b60405180910390fd5b6000836002805490506104779190612703565b8310610493578360028054905061048e9190612703565b610495565b825b905060008167ffffffffffffffff8111156104b3576104b2612052565b5b6040519080825280602002602001820160405280156104e15781602001602082028036833780820191505090505b50905060005b8281101561059957600281876104fd9190612737565b8154811061050e5761050d61278d565b5b9060005260206000200160009054906101000a900473ffffffffffffffffffffffffffffffffffffffff1682828151811061054c5761054b61278d565b5b602002602001019073ffffffffffffffffffffffffffffffffffffffff16908173ffffffffffffffffffffffffffffffffffffffff16815250508080610591906127bc565b9150506104e7565b50809250505092915050565b6000600360008373ffffffffffffffffffffffffffffffffffffffff1673ffffffffffffffffffffffffffffffffffffffff168152602001908152602001600020600501549050919050565b6000600360008373ffffffffffffffffffffffffffffffffffffffff1673ffffffffffffffffffffffffffffffffffffffff168152602001908152602001600020600301549050919050565b6002818154811061064d57600080fd5b906000526020600020016000915054906101000a900473ffffffffffffffffffffffffffffffffffffffff1681565b600080600360008573ffffffffffffffffffffffffffffffffffffffff1673ffffffffffffffffffffffffffffffffffffffff1681526020019081526020016000206040518060e0016040529081600082015481526020016001820160009054906101000a900473ffffffffffffffffffffffffffffffffffffffff1673ffffffffffffffffffffffffffffffffffffffff1673ffffffffffffffffffffffffffffffffffffffff16815260200160028201805480602002602001604051908101604052809291908181526020016000905b828210156107fa57838290600052602060002001805461076d90612833565b80601f016020809104026020016040519081016040528092919081815260200182805461079990612833565b80156107e65780601f106107bb576101008083540402835291602001916107e6565b820191906000526020600020905b8154815290600101906020018083116107c957829003601f168201915b50505050508152602001906001019061074e565b5050505081526020016003820154815260200160048201548152602001600582015481526020016006820154815250509050828160c001511461084157600091505061084a565b80606001519150505b92915050565b6000600360008373ffffffffffffffffffffffffffffffffffffffff1673ffffffffffffffffffffffffffffffffffffffff168152602001908152602001600020600001549050919050565b60008054906101000a900473ffffffffffffffffffffffffffffffffffffffff1673ffffffffffffffffffffffffffffffffffffffff163373ffffffffffffffffffffffffffffffffffffffff1614806109435750600660009054906101000a900473ffffffffffffffffffffffffffffffffffffffff1673ffffffffffffffffffffffffffffffffffffffff163373ffffffffffffffffffffffffffffffffffffffff16145b610982576040517f08c379a0000000000000000000000000000000000000000000000000000000008152600401610979906128d6565b60405180910390fd5b6000600360008373ffffffffffffffffffffffffffffffffffffffff1673ffffffffffffffffffffffffffffffffffffffff1681526020019081526020016000206000015403610a07576040517f08c379a00000000000000000000000000000000000000000000000000000000081526004016109fe90612942565b60405180910390fd5b600360008273ffffffffffffffffffffffffffffffffffffffff1673ffffffffffffffffffffffffffffffffffffffff16815260200190815260200160002060020182908060018154018082558091505060019003906000526020600020016000909190919091509080519060200190610a82929190611bb5565b503373ffffffffffffffffffffffffffffffffffffffff167f5ab01d048031f750e99d5633da52f8a23ea15c463d3e20325f4fd2689cc795e883604051610ac9919061299b565b60405180910390a25050565b6060600360008373ffffffffffffffffffffffffffffffffffffffff1673ffffffffffffffffffffffffffffffffffffffff168152602001908152602001600020600201805480602002602001604051908101604052809291908181526020016000905b82821015610be5578382906000526020600020018054610b5890612833565b80601f0160208091040260200160405190810160405280929190818152602001828054610b8490612833565b8015610bd15780601f10610ba657610100808354040283529160200191610bd1565b820191906000526020600020905b815481529060010190602001808311610bb457829003601f168201915b505050505081526020019060010190610b39565b505050509050919050565b610bf8611c3b565b600360008373ffffffffffffffffffffffffffffffffffffffff1673ffffffffffffffffffffffffffffffffffffffff1681526020019081526020016000206040518060e0016040529081600082015481526020016001820160009054906101000a900473ffffffffffffffffffffffffffffffffffffffff1673ffffffffffffffffffffffffffffffffffffffff1673ffffffffffffffffffffffffffffffffffffffff16815260200160028201805480602002602001604051908101604052809291908181526020016000905b82821015610d73578382906000526020600020018054610ce690612833565b80601f0160208091040260200160405190810160405280929190818152602001828054610d1290612833565b8015610d5f5780601f10610d3457610100808354040283529160200191610d5f565b820191906000526020600020905b815481529060010190602001808311610d4257829003601f168201915b505050505081526020019060010190610cc7565b5050505081526020016003820154815260200160048201548152602001600582015481526020016006820154815250509050919050565b60008054906101000a900473ffffffffffffffffffffffffffffffffffffffff1673ffffffffffffffffffffffffffffffffffffffff163373ffffffffffffffffffffffffffffffffffffffff161480610e515750600660009054906101000a900473ffffffffffffffffffffffffffffffffffffffff1673ffffffffffffffffffffffffffffffffffffffff163373ffffffffffffffffffffffffffffffffffffffff16145b610e90576040517f08c379a0000000000000000000000000000000000000000000000000000000008152600401610e87906128d6565b60405180910390fd5b8273ffffffffffffffffffffffffffffffffffffffff168273ffffffffffffffffffffffffffffffffffffffff1603610efe576040517f08c379a0000000000000000000000000000000000000000000000000000000008152600401610ef590612a09565b60405180910390fd5b60008490506000849050600073ffffffffffffffffffffffffffffffffffffffff168573ffffffffffffffffffffffffffffffffffffffff1603610f6657600160009054906101000a900473ffffffffffffffffffffffffffffffffffffffff169050610f75565b60008603610f745761022b91505b5b600460008573ffffffffffffffffffffffffffffffffffffffff1673ffffffffffffffffffffffffffffffffffffffff16815260200190815260200160002060009054906101000a900460ff166112bb576040518060e001604052808781526020018273ffffffffffffffffffffffffffffffffffffffff168152602001600067ffffffffffffffff81111561100e5761100d612052565b5b60405190808252806020026020018201604052801561104157816020015b606081526020019060019003908161102c5790505b50815260200160008152602001600081526020016000815260200184815250600360008673ffffffffffffffffffffffffffffffffffffffff1673ffffffffffffffffffffffffffffffffffffffff1681526020019081526020016000206000820151816000015560208201518160010160006101000a81548173ffffffffffffffffffffffffffffffffffffffff021916908373ffffffffffffffffffffffffffffffffffffffff160217905550604082015181600201908051906020019061110c929190611c8e565b50606082015181600301556080820151816004015560a0820151816005015560c082015181600601559050506002849080600181540180825580915050600190039060005260206000200160009091909190916101000a81548173ffffffffffffffffffffffffffffffffffffffff021916908373ffffffffffffffffffffffffffffffffffffffff1602179055506001600460008673ffffffffffffffffffffffffffffffffffffffff1673ffffffffffffffffffffffffffffffffffffffff16815260200190815260200160002060006101000a81548160ff021916908315150217905550600360008573ffffffffffffffffffffffffffffffffffffffff1673ffffffffffffffffffffffffffffffffffffffff16815260200190815260200160002060010160009054906101000a900473ffffffffffffffffffffffffffffffffffffffff1673ffffffffffffffffffffffffffffffffffffffff168473ffffffffffffffffffffffffffffffffffffffff167fb8fce1e34570982f336b9e588f74cce80586e7a7a8a4c71f89db83c9493b638b886040516112b29190611f73565b60405180910390a35b84600360008673ffffffffffffffffffffffffffffffffffffffff1673ffffffffffffffffffffffffffffffffffffffff16815260200190815260200160002060010160006101000a81548173ffffffffffffffffffffffffffffffffffffffff021916908373ffffffffffffffffffffffffffffffffffffffff160217905550505050505050565b60008054906101000a900473ffffffffffffffffffffffffffffffffffffffff1673ffffffffffffffffffffffffffffffffffffffff163373ffffffffffffffffffffffffffffffffffffffff1614806113eb5750600660009054906101000a900473ffffffffffffffffffffffffffffffffffffffff1673ffffffffffffffffffffffffffffffffffffffff163373ffffffffffffffffffffffffffffffffffffffff16145b61142a576040517f08c379a0000000000000000000000000000000000000000000000000000000008152600401611421906128d6565b60405180910390fd5b80600360008473ffffffffffffffffffffffffffffffffffffffff1673ffffffffffffffffffffffffffffffffffffffff168152602001908152602001600020600301600082825461147c9190612737565b925050819055505050565b60008054906101000a900473ffffffffffffffffffffffffffffffffffffffff1673ffffffffffffffffffffffffffffffffffffffff163373ffffffffffffffffffffffffffffffffffffffff16148061152e5750600660009054906101000a900473ffffffffffffffffffffffffffffffffffffffff1673ffffffffffffffffffffffffffffffffffffffff163373ffffffffffffffffffffffffffffffffffffffff16145b61156d576040517f08c379a0000000000000000000000000000000000000000000000000000000008152600401611564906128d6565b60405180910390fd5b600360008373ffffffffffffffffffffffffffffffffffffffff1673ffffffffffffffffffffffffffffffffffffffff168152602001908152602001600020600201819080600181540180825580915050600190039060005260206000200160009091909190915090805190602001906115e8929190611bb5565b505050565b60008054906101000a900473ffffffffffffffffffffffffffffffffffffffff1673ffffffffffffffffffffffffffffffffffffffff163373ffffffffffffffffffffffffffffffffffffffff1614806116945750600660009054906101000a900473ffffffffffffffffffffffffffffffffffffffff1673ffffffffffffffffffffffffffffffffffffffff163373ffffffffffffffffffffffffffffffffffffffff16145b6116d3576040517f08c379a00000000000000000000000000000000000000000000000000000000081526004016116ca906128d6565b60405180910390fd5b80600360008473ffffffffffffffffffffffffffffffffffffffff1673ffffffffffffffffffffffffffffffffffffffff16815260200190815260200160002060050160008282546117259190612737565b925050819055505050565b60008054906101000a900473ffffffffffffffffffffffffffffffffffffffff1673ffffffffffffffffffffffffffffffffffffffff163373ffffffffffffffffffffffffffffffffffffffff1614806117d75750600660009054906101000a900473ffffffffffffffffffffffffffffffffffffffff1673ffffffffffffffffffffffffffffffffffffffff163373ffffffffffffffffffffffffffffffffffffffff16145b611816576040517f08c379a000000000000000000000000000000000000000000000000000000000815260040161180d906128d6565b60405180910390fd5b806000806101000a81548173ffffffffffffffffffffffffffffffffffffffff021916908373ffffffffffffffffffffffffffffffffffffffff16021790555050565b60008054906101000a900473ffffffffffffffffffffffffffffffffffffffff1673ffffffffffffffffffffffffffffffffffffffff163373ffffffffffffffffffffffffffffffffffffffff1614806119005750600660009054906101000a900473ffffffffffffffffffffffffffffffffffffffff1673ffffffffffffffffffffffffffffffffffffffff163373ffffffffffffffffffffffffffffffffffffffff16145b61193f576040517f08c379a0000000000000000000000000000000000000000000000000000000008152600401611936906128d6565b60405180910390fd5b6000600360008373ffffffffffffffffffffffffffffffffffffffff1673ffffffffffffffffffffffffffffffffffffffff1681526020019081526020016000206005018190555050565b60046020528060005260406000206000915054906101000a900460ff1681565b6000600360008373ffffffffffffffffffffffffffffffffffffffff1673ffffffffffffffffffffffffffffffffffffffff16815260200190815260200160002060010160009054906101000a900473ffffffffffffffffffffffffffffffffffffffff169050919050565b60008054906101000a900473ffffffffffffffffffffffffffffffffffffffff1673ffffffffffffffffffffffffffffffffffffffff163373ffffffffffffffffffffffffffffffffffffffff161480611abd5750600660009054906101000a900473ffffffffffffffffffffffffffffffffffffffff1673ffffffffffffffffffffffffffffffffffffffff163373ffffffffffffffffffffffffffffffffffffffff16145b611afc576040517f08c379a0000000000000000000000000000000000000000000000000000000008152600401611af3906128d6565b60405180910390fd5b80600360008473ffffffffffffffffffffffffffffffffffffffff1673ffffffffffffffffffffffffffffffffffffffff1681526020019081526020016000206004016000828254611b4e9190612737565b925050819055505050565b60036020528060005260406000206000915090508060000154908060010160009054906101000a900473ffffffffffffffffffffffffffffffffffffffff16908060030154908060040154908060050154908060060154905086565b828054611bc190612833565b90600052602060002090601f016020900481019282611be35760008555611c2a565b82601f10611bfc57805160ff1916838001178555611c2a565b82800160010185558215611c2a579182015b82811115611c29578251825591602001919060010190611c0e565b5b509050611c379190611cee565b5090565b6040518060e0016040528060008152602001600073ffffffffffffffffffffffffffffffffffffffff16815260200160608152602001600081526020016000815260200160008152602001600081525090565b828054828255906000526020600020908101928215611cdd579160200282015b82811115611cdc578251829080519060200190611ccc929190611bb5565b5091602001919060010190611cae565b5b509050611cea9190611d0b565b5090565b5b80821115611d07576000816000905550600101611cef565b5090565b5b80821115611d2b5760008181611d229190611d2f565b50600101611d0c565b5090565b508054611d3b90612833565b6000825580601f10611d4d5750611d6c565b601f016020900490600052602060002090810190611d6b9190611cee565b5b50565b6000604051905090565b600080fd5b600080fd5b6000819050919050565b611d9681611d83565b8114611da157600080fd5b50565b600081359050611db381611d8d565b92915050565b60008060408385031215611dd057611dcf611d79565b5b6000611dde85828601611da4565b9250506020611def85828601611da4565b9150509250929050565b600081519050919050565b600082825260208201905092915050565b6000819050602082019050919050565b600073ffffffffffffffffffffffffffffffffffffffff82169050919050565b6000611e5082611e25565b9050919050565b611e6081611e45565b82525050565b6000611e728383611e57565b60208301905092915050565b6000602082019050919050565b6000611e9682611df9565b611ea08185611e04565b9350611eab83611e15565b8060005b83811015611edc578151611ec38882611e66565b9750611ece83611e7e565b925050600181019050611eaf565b5085935050505092915050565b60006020820190508181036000830152611f038184611e8b565b905092915050565b611f1481611e45565b8114611f1f57600080fd5b50565b600081359050611f3181611f0b565b92915050565b600060208284031215611f4d57611f4c611d79565b5b6000611f5b84828501611f22565b91505092915050565b611f6d81611d83565b82525050565b6000602082019050611f886000830184611f64565b92915050565b600060208284031215611fa457611fa3611d79565b5b6000611fb284828501611da4565b91505092915050565b6000611fc682611e25565b9050919050565b611fd681611fbb565b82525050565b6000602082019050611ff16000830184611fcd565b92915050565b6000806040838503121561200e5761200d611d79565b5b600061201c85828601611f22565b925050602061202d85828601611da4565b9150509250929050565b600080fd5b600080fd5b6000601f19601f8301169050919050565b7f4e487b7100000000000000000000000000000000000000000000000000000000600052604160045260246000fd5b61208a82612041565b810181811067ffffffffffffffff821117156120a9576120a8612052565b5b80604052505050565b60006120bc611d6f565b90506120c88282612081565b919050565b600067ffffffffffffffff8211156120e8576120e7612052565b5b6120f182612041565b9050602081019050919050565b82818337600083830152505050565b600061212061211b846120cd565b6120b2565b90508281526020810184848401111561213c5761213b61203c565b5b6121478482856120fe565b509392505050565b600082601f83011261216457612163612037565b5b813561217484826020860161210d565b91505092915050565b6000806040838503121561219457612193611d79565b5b600083013567ffffffffffffffff8111156121b2576121b1611d7e565b5b6121be8582860161214f565b92505060206121cf85828601611f22565b9150509250929050565b600081519050919050565b600082825260208201905092915050565b6000819050602082019050919050565b600081519050919050565b600082825260208201905092915050565b60005b8381101561223f578082015181840152602081019050612224565b8381111561224e576000848401525b50505050565b600061225f82612205565b6122698185612210565b9350612279818560208601612221565b61228281612041565b840191505092915050565b60006122998383612254565b905092915050565b6000602082019050919050565b60006122b9826121d9565b6122c381856121e4565b9350836020820285016122d5856121f5565b8060005b8581101561231157848403895281516122f2858261228d565b94506122fd836122a1565b925060208a019950506001810190506122d9565b50829750879550505050505092915050565b6000602082019050818103600083015261233d81846122ae565b905092915050565b61234e81611d83565b82525050565b61235d81611fbb565b82525050565b600082825260208201905092915050565b600061237f826121d9565b6123898185612363565b93508360208202850161239b856121f5565b8060005b858110156123d757848403895281516123b8858261228d565b94506123c3836122a1565b925060208a0199505060018101905061239f565b50829750879550505050505092915050565b600060e0830160008301516124016000860182612345565b5060208301516124146020860182612354565b506040830151848203604086015261242c8282612374565b91505060608301516124416060860182612345565b5060808301516124546080860182612345565b5060a083015161246760a0860182612345565b5060c083015161247a60c0860182612345565b508091505092915050565b6000602082019050818103600083015261249f81846123e9565b905092915050565b6124b081611fbb565b81146124bb57600080fd5b50565b6000813590506124cd816124a7565b92915050565b600080600080608085870312156124ed576124ec611d79565b5b60006124fb87828801611da4565b945050602061250c878288016124be565b935050604061251d878288016124be565b925050606061252e87828801611da4565b91505092959194509250565b6000806040838503121561255157612550611d79565b5b600061255f85828601611f22565b925050602083013567ffffffffffffffff8111156125805761257f611d7e565b5b61258c8582860161214f565b9150509250929050565b60008115159050919050565b6125ab81612596565b82525050565b60006020820190506125c660008301846125a2565b92915050565b6125d581611e45565b82525050565b60006020820190506125f060008301846125cc565b92915050565b600060c08201905061260b6000830189611f64565b6126186020830188611fcd565b6126256040830187611f64565b6126326060830186611f64565b61263f6080830185611f64565b61264c60a0830184611f64565b979650505050505050565b600082825260208201905092915050565b7f537461727420696e646578206f7574206f6620626f756e647300000000000000600082015250565b600061269e601983612657565b91506126a982612668565b602082019050919050565b600060208201905081810360008301526126cd81612691565b9050919050565b7f4e487b7100000000000000000000000000000000000000000000000000000000600052601160045260246000fd5b600061270e82611d83565b915061271983611d83565b92508282101561272c5761272b6126d4565b5b828203905092915050565b600061274282611d83565b915061274d83611d83565b9250827fffffffffffffffffffffffffffffffffffffffffffffffffffffffffffffffff03821115612782576127816126d4565b5b828201905092915050565b7f4e487b7100000000000000000000000000000000000000000000000000000000600052603260045260246000fd5b60006127c782611d83565b91507fffffffffffffffffffffffffffffffffffffffffffffffffffffffffffffffff82036127f9576127f86126d4565b5b600182019050919050565b7f4e487b7100000000000000000000000000000000000000000000000000000000600052602260045260246000fd5b6000600282049050600182168061284b57607f821691505b60208210810361285e5761285d612804565b5b50919050565b7f43616c6c6572206973206e6f742074686520616c6c6f77656420636f6e74726160008201527f6374000000000000000000000000000000000000000000000000000000000000602082015250565b60006128c0602283612657565b91506128cb82612864565b604082019050919050565b600060208201905081810360008301526128ef816128b3565b9050919050565b7f506c61796572206e6f7420726567697374657265640000000000000000000000600082015250565b600061292c601583612657565b9150612937826128f6565b602082019050919050565b6000602082019050818103600083015261295b8161291f565b9050919050565b600061296d82612205565b6129778185612657565b9350612987818560208601612221565b61299081612041565b840191505092915050565b600060208201905081810360008301526129b58184612962565b905092915050565b7f63616e6e6f7420726566657220796f757273656c66206b656b00000000000000600082015250565b60006129f3601983612657565b91506129fe826129bd565b602082019050919050565b60006020820190508181036000830152612a22816129e6565b905091905056fea26469706673582212204c5448884ee65bfaea2bbad38b42bc664475f39a86e41391a4cb8e1ab295a4ac64736f6c634300080d0033",
  "immutableReferences": {},
  "source": "// SPDX-License-Identifier: MIT\npragma solidity >=0.4.22 <0.9.0;\n\n\ninterface IPlayersBook {\n\n      struct Player {\n        uint256 referralCode;\n        address payable affiliate;\n        string[] vanityNames; // Changed from string to string[]\n        uint256 keysOwned;        // New field\n        uint256 dividendsClaimed;\n        uint256 dividendsEarned;  // New field\n    }\n\n    event PlayerRegistered(address indexed player, address indexed affiliate, uint256 playerId);\n    event VanityNamePurchased(address indexed player, string vanityName);\n\n    // Function to register a player with a specified affiliate\n    function registerPlayerInfo(uint refCode, address payable affAddress, address payable playerAddress) external payable;\n\n    // Function to purchase a vanity name\n    function purchaseVanityName(string memory vanityName, address payable playerAddress) external payable;\n\n    // Function to get the affiliate ID of a player\n    function getAffiliateId(address player) external view returns (uint256);\n\n    // Function to get the affiliate address of a player\n    function getAffiliate(address player) external view returns (address);\n\n    // Function to get the vanity names of a player\n    function getVanityNames(address player) external view returns (string[] memory);\n\n    // Function to get the top 10 players\n    function getPlayers(uint256 startIndex, uint256 count) external view returns (address[] memory);\n\n    // Function to get the player details\n    function getPlayer(address playerAddress) external view returns (Player memory);\n\n    // Function to add a vanity name to a player\n    function addVanityName(address playerAddress, string memory vanityName) external;\n\n    function wipeDivies(address playerAddress) external;\n    function addDividendsEarned(address playerAddress, uint256 playersDivies) external;\n    function getTotalPlayerKeys(address playerAddress) external view returns(uint256);\n    function addKeysBought(address playerAddress, uint256 playerKeys) external;\n    function getPlayersReferralCode(address playerAddress) external view returns(uint256);\n    function clearPlayerHistory() external payable;\n    function getDividendsEarned(address playerAddress) external view returns (address);\n    \n    function getPlayerKeys(address playerAddress, uint256 currentRound) external view returns(uint256);\n    function addClaimedDividends(address playerAddress, uint256 playerDivies) external;\n}\n\n\ncontract PlayersBook {\n    struct Player {\n        uint256 referralCode;\n        address payable affiliate;\n        string[] vanityNames; // Changed from string to string[]\n        uint256 keysOwned;        // New field\n        uint256 dividendsClaimed;\n        uint256 dividendsEarned;  // New field\n        uint256 round;\n    }\n\n    address allowedContractAddress;\n    address payable payAddress;\n    address payable[] public playerAddresses; // Add this line to store the addresses of all players\n    mapping (address=> Player) public players;\n\n    mapping(address => bool) public isPlayerAdded;\n    uint256 internal nextId = 1;\n    address owner;\n\n    constructor(address _owner, address payable _payAddress) {\n        owner = _owner;\n        payAddress = _payAddress;\n    }\n    modifier onlyAllowedContract() {\n    require(msg.sender == allowedContractAddress || msg.sender == owner, \"Caller is not the allowed contract\");\n    _;\n    }\n    event PlayerRegistered(address indexed player, address indexed affiliate, uint256 playerId);\n    event VanityNamePurchased(address indexed player, string vanityName);\n\n    // Function to register a player with a specified affiliate\n    // Function to register a player with a specified affiliate\n    function setAllowedContractAddress(address contractAddress) external onlyAllowedContract{\n        allowedContractAddress = contractAddress;\n    }\n    function registerPlayerInfo(uint256 refCode, address payable affAddress, address payable playerAddress, uint256 currentRound) external onlyAllowedContract(){\n        require(playerAddress != affAddress, \"cannot refer yourself kek\");\n\n        uint256 defaultRefCode = refCode;\n        address payable affiliateAddress = affAddress;\n        if (affAddress == address(0)){\n            affiliateAddress = payAddress;\n        } else if (refCode == 0) {\n            defaultRefCode = 555;\n        }\n        \n        if (!isPlayerAdded[playerAddress]){\n        players[playerAddress] = Player(refCode, affiliateAddress, new string[](0), 0, 0, 0, currentRound);\n        playerAddresses.push((playerAddress));\n        isPlayerAdded[playerAddress] = true;\n        emit PlayerRegistered(playerAddress, players[playerAddress].affiliate, refCode);\n        }\n\n        players[playerAddress].affiliate = affAddress;\n\n    }\n    // Function to purchase a vanity name\n    function purchaseVanityName(string memory vanityName, address playerAddress) external onlyAllowedContract{\n        require(players[playerAddress].referralCode != 0, \"Player not registered\");\n        players[playerAddress].vanityNames.push(vanityName); // Add the new vanity name to the array\n        emit VanityNamePurchased(msg.sender, vanityName);\n    }\n\n    // Function to get the refer ID of a player\n    function getPlayersReferralCode(address player) external view returns (uint256) {\n        return players[player].referralCode;\n    }\n\n    // Function to get the affiliate address of a player\n    function getAffiliate(address player) external view returns (address) {\n        return players[player].affiliate;\n    }\n\n    // Function to get the vanity names of a player\n    function getVanityNames(address player) external view returns (string[] memory) {\n        return players[player].vanityNames;\n    }\n    // Function to get the top 10 players\n   function getPlayers(uint256 startIndex, uint256 count) external view returns (address[] memory) {\n    require(startIndex < playerAddresses.length, \"Start index out of bounds\");\n\n    // The number of players to return is the minimum of count and the total number of remaining players\n    uint256 numPlayersToReturn = count < playerAddresses.length - startIndex ? count : playerAddresses.length - startIndex;\n\n    // This array will store the requested players\n    address[] memory requestedPlayers = new address[](numPlayersToReturn);\n\n    for (uint256 i = 0; i < numPlayersToReturn; i++) {\n        requestedPlayers[i] = playerAddresses[startIndex + i];\n    }\n\n    return requestedPlayers;\n    }\n\n    function getPlayerKeys(address playerAddress, uint256 currentRound) public view returns (uint256) {\n        Player memory player = players[playerAddress];\n        if (player.round != currentRound) {\n            return 0; // If the player's round doesn't match the current round, return 0 keys\n        }\n        return player.keysOwned;\n    }\n\n   \n   function getPlayer(address playerAddress) public view returns (Player memory) {\n    return players[playerAddress];\n    }\n    function addVanityName(address playerAddress, string memory vanityName) public onlyAllowedContract {\n        players[playerAddress].vanityNames.push(vanityName);\n    }\n\n    \n    function addClaimedDividends(address playerAddress, uint256 playerDivies) public onlyAllowedContract {\n        players[playerAddress].dividendsClaimed += playerDivies;\n    }\n\n    function getDividendsEarned(address playerAddress) public view returns (uint256) {\n      return players[playerAddress].dividendsEarned;\n    }\n    \n    function addDividendsEarned(address playerAddress, uint256 dividendAmt) public onlyAllowedContract {\n        players[playerAddress].dividendsEarned += dividendAmt; \n    }\n\n    function wipeDivies(address playerAddress) public onlyAllowedContract{\n        players[playerAddress].dividendsEarned = 0;\n    }\n    function getTotalPlayerKeys(address playerAddress) external view returns(uint256) {\n        return players[playerAddress].keysOwned;\n    }\n     \n     function addKeysBought(address playerAddress, uint256 playerKeys) public onlyAllowedContract {\n        players[playerAddress].keysOwned += playerKeys; \n    }\n    \n}\n",
  "sourcePath": "/home/jeremy/Desktop/blockchain-projects/fomo3dphoenix/contracts/Players.sol",
  "compiler": {
    "name": "solc",
    "version": "0.8.13+commit.abaa5c0e.Emscripten.clang"
  },
  "schemaVersion": "3.4.14",
  "updatedAt": "2023-08-01T11:12:47.112Z",
  "devdoc": {
    "kind": "dev",
    "methods": {},
    "version": 1
  },
  "userdoc": {
    "kind": "user",
    "methods": {},
    "version": 1
  }
}