{
  "contractName": "Rounds",
  "abi": [
    {
      "inputs": [
        {
          "internalType": "address",
          "name": "_allowedContractAddress",
          "type": "address"
        },
        {
          "internalType": "address",
          "name": "_owner",
          "type": "address"
        }
      ],
      "stateMutability": "nonpayable",
      "type": "constructor"
    },
    {
      "inputs": [
        {
          "internalType": "uint256",
          "name": "",
          "type": "uint256"
        }
      ],
      "name": "rounds",
      "outputs": [
        {
          "internalType": "uint256",
          "name": "totalPot",
          "type": "uint256"
        },
        {
          "internalType": "uint256",
          "name": "totalSidePot",
          "type": "uint256"
        },
        {
          "internalType": "uint256",
          "name": "totalPlayers",
          "type": "uint256"
        },
        {
          "internalType": "uint256",
          "name": "totalKeys",
          "type": "uint256"
        },
        {
          "internalType": "uint256",
          "name": "totalNextRoundPot",
          "type": "uint256"
        },
        {
          "internalType": "uint256",
          "name": "totalDividendPot",
          "type": "uint256"
        },
        {
          "internalType": "uint256",
          "name": "totalEarned",
          "type": "uint256"
        }
      ],
      "stateMutability": "view",
      "type": "function"
    },
    {
      "inputs": [
        {
          "internalType": "uint256",
          "name": "roundNumber",
          "type": "uint256"
        }
      ],
      "name": "getRound",
      "outputs": [
        {
          "components": [
            {
              "internalType": "uint256",
              "name": "totalPot",
              "type": "uint256"
            },
            {
              "internalType": "uint256",
              "name": "totalSidePot",
              "type": "uint256"
            },
            {
              "internalType": "uint256",
              "name": "totalPlayers",
              "type": "uint256"
            },
            {
              "internalType": "uint256",
              "name": "totalKeys",
              "type": "uint256"
            },
            {
              "internalType": "uint256",
              "name": "totalNextRoundPot",
              "type": "uint256"
            },
            {
              "internalType": "uint256",
              "name": "totalDividendPot",
              "type": "uint256"
            },
            {
              "internalType": "uint256",
              "name": "totalEarned",
              "type": "uint256"
            }
          ],
          "internalType": "struct Rounds.Round",
          "name": "",
          "type": "tuple"
        }
      ],
      "stateMutability": "view",
      "type": "function"
    },
    {
      "inputs": [
        {
          "internalType": "uint256",
          "name": "roundNumber",
          "type": "uint256"
        },
        {
          "internalType": "uint256",
          "name": "roundPot",
          "type": "uint256"
        }
      ],
      "name": "updateRoundPot",
      "outputs": [],
      "stateMutability": "nonpayable",
      "type": "function"
    },
    {
      "inputs": [
        {
          "internalType": "uint256",
          "name": "roundNumber",
          "type": "uint256"
        },
        {
          "internalType": "uint256",
          "name": "roundSidePot",
          "type": "uint256"
        }
      ],
      "name": "updateRoundSidePot",
      "outputs": [],
      "stateMutability": "nonpayable",
      "type": "function"
    },
    {
      "inputs": [
        {
          "internalType": "uint256",
          "name": "roundNumber",
          "type": "uint256"
        },
        {
          "internalType": "uint256",
          "name": "player",
          "type": "uint256"
        }
      ],
      "name": "updateTotalPlayers",
      "outputs": [],
      "stateMutability": "nonpayable",
      "type": "function"
    },
    {
      "inputs": [
        {
          "internalType": "uint256",
          "name": "roundNumber",
          "type": "uint256"
        },
        {
          "internalType": "uint256",
          "name": "playerKeys",
          "type": "uint256"
        }
      ],
      "name": "updateTotalKeys",
      "outputs": [],
      "stateMutability": "nonpayable",
      "type": "function"
    },
    {
      "inputs": [
        {
          "internalType": "uint256",
          "name": "roundNumber",
          "type": "uint256"
        },
        {
          "internalType": "uint256",
          "name": "nextRoundPot",
          "type": "uint256"
        }
      ],
      "name": "updateNextRoundPot",
      "outputs": [],
      "stateMutability": "nonpayable",
      "type": "function"
    },
    {
      "inputs": [
        {
          "internalType": "uint256",
          "name": "roundNumber",
          "type": "uint256"
        },
        {
          "internalType": "uint256",
          "name": "diviePot",
          "type": "uint256"
        }
      ],
      "name": "updateTotalDividendPot",
      "outputs": [],
      "stateMutability": "nonpayable",
      "type": "function"
    },
    {
      "inputs": [
        {
          "internalType": "uint256",
          "name": "roundNumber",
          "type": "uint256"
        },
        {
          "internalType": "uint256",
          "name": "totalDivsEarned",
          "type": "uint256"
        }
      ],
      "name": "updateTotalEarned",
      "outputs": [],
      "stateMutability": "nonpayable",
      "type": "function"
    }
  ],
  "bytecode": "0x60806040523480156200001157600080fd5b5060405162000ffe38038062000ffe83398181016040528101906200003791906200012a565b816000806101000a81548173ffffffffffffffffffffffffffffffffffffffff021916908373ffffffffffffffffffffffffffffffffffffffff16021790555080600160006101000a81548173ffffffffffffffffffffffffffffffffffffffff021916908373ffffffffffffffffffffffffffffffffffffffff160217905550505062000171565b600080fd5b600073ffffffffffffffffffffffffffffffffffffffff82169050919050565b6000620000f282620000c5565b9050919050565b6200010481620000e5565b81146200011057600080fd5b50565b6000815190506200012481620000f9565b92915050565b60008060408385031215620001445762000143620000c0565b5b6000620001548582860162000113565b9250506020620001678582860162000113565b9150509250929050565b610e7d80620001816000396000f3fe608060405234801561001057600080fd5b50600436106100935760003560e01c80638c65c81f116100665780638c65c81f146101085780638dc6256c1461013e5780638f1327c01461015a578063a4ce300d1461018a578063c4ec6f3c146101a657610093565b80630aeecea21461009857806342587134146100b457806346131709146100d05780636af82dee146100ec575b600080fd5b6100b260048036038101906100ad9190610b7c565b6101c2565b005b6100ce60048036038101906100c99190610b7c565b6102d9565b005b6100ea60048036038101906100e59190610b7c565b6103f0565b005b61010660048036038101906101019190610b7c565b610507565b005b610122600480360381019061011d9190610bbc565b61061e565b6040516101359796959493929190610bf8565b60405180910390f35b61015860048036038101906101539190610b7c565b610660565b005b610174600480360381019061016f9190610bbc565b610777565b6040516101819190610d04565b60405180910390f35b6101a4600480360381019061019f9190610b7c565b6108d6565b005b6101c060048036038101906101bb9190610b7c565b6109ed565b005b60008054906101000a900473ffffffffffffffffffffffffffffffffffffffff1673ffffffffffffffffffffffffffffffffffffffff163373ffffffffffffffffffffffffffffffffffffffff1614806102695750600160009054906101000a900473ffffffffffffffffffffffffffffffffffffffff1673ffffffffffffffffffffffffffffffffffffffff163373ffffffffffffffffffffffffffffffffffffffff16145b6102a8576040517f08c379a000000000000000000000000000000000000000000000000000000000815260040161029f90610da2565b60405180910390fd5b806002600084815260200190815260200160002060020160008282546102ce9190610df1565b925050819055505050565b60008054906101000a900473ffffffffffffffffffffffffffffffffffffffff1673ffffffffffffffffffffffffffffffffffffffff163373ffffffffffffffffffffffffffffffffffffffff1614806103805750600160009054906101000a900473ffffffffffffffffffffffffffffffffffffffff1673ffffffffffffffffffffffffffffffffffffffff163373ffffffffffffffffffffffffffffffffffffffff16145b6103bf576040517f08c379a00000000000000000000000000000000000000000000000000000000081526004016103b690610da2565b60405180910390fd5b806002600084815260200190815260200160002060030160008282546103e59190610df1565b925050819055505050565b60008054906101000a900473ffffffffffffffffffffffffffffffffffffffff1673ffffffffffffffffffffffffffffffffffffffff163373ffffffffffffffffffffffffffffffffffffffff1614806104975750600160009054906101000a900473ffffffffffffffffffffffffffffffffffffffff1673ffffffffffffffffffffffffffffffffffffffff163373ffffffffffffffffffffffffffffffffffffffff16145b6104d6576040517f08c379a00000000000000000000000000000000000000000000000000000000081526004016104cd90610da2565b60405180910390fd5b806002600084815260200190815260200160002060010160008282546104fc9190610df1565b925050819055505050565b60008054906101000a900473ffffffffffffffffffffffffffffffffffffffff1673ffffffffffffffffffffffffffffffffffffffff163373ffffffffffffffffffffffffffffffffffffffff1614806105ae5750600160009054906101000a900473ffffffffffffffffffffffffffffffffffffffff1673ffffffffffffffffffffffffffffffffffffffff163373ffffffffffffffffffffffffffffffffffffffff16145b6105ed576040517f08c379a00000000000000000000000000000000000000000000000000000000081526004016105e490610da2565b60405180910390fd5b806002600084815260200190815260200160002060060160008282546106139190610df1565b925050819055505050565b60026020528060005260406000206000915090508060000154908060010154908060020154908060030154908060040154908060050154908060060154905087565b60008054906101000a900473ffffffffffffffffffffffffffffffffffffffff1673ffffffffffffffffffffffffffffffffffffffff163373ffffffffffffffffffffffffffffffffffffffff1614806107075750600160009054906101000a900473ffffffffffffffffffffffffffffffffffffffff1673ffffffffffffffffffffffffffffffffffffffff163373ffffffffffffffffffffffffffffffffffffffff16145b610746576040517f08c379a000000000000000000000000000000000000000000000000000000000815260040161073d90610da2565b60405180910390fd5b8060026000848152602001908152602001600020600401600082825461076c9190610df1565b925050819055505050565b61077f610b04565b60008054906101000a900473ffffffffffffffffffffffffffffffffffffffff1673ffffffffffffffffffffffffffffffffffffffff163373ffffffffffffffffffffffffffffffffffffffff1614806108265750600160009054906101000a900473ffffffffffffffffffffffffffffffffffffffff1673ffffffffffffffffffffffffffffffffffffffff163373ffffffffffffffffffffffffffffffffffffffff16145b610865576040517f08c379a000000000000000000000000000000000000000000000000000000000815260040161085c90610da2565b60405180910390fd5b6000600260008481526020019081526020016000206040518060e0016040529081600082015481526020016001820154815260200160028201548152602001600382015481526020016004820154815260200160058201548152602001600682015481525050905080915050919050565b60008054906101000a900473ffffffffffffffffffffffffffffffffffffffff1673ffffffffffffffffffffffffffffffffffffffff163373ffffffffffffffffffffffffffffffffffffffff16148061097d5750600160009054906101000a900473ffffffffffffffffffffffffffffffffffffffff1673ffffffffffffffffffffffffffffffffffffffff163373ffffffffffffffffffffffffffffffffffffffff16145b6109bc576040517f08c379a00000000000000000000000000000000000000000000000000000000081526004016109b390610da2565b60405180910390fd5b806002600084815260200190815260200160002060000160008282546109e29190610df1565b925050819055505050565b60008054906101000a900473ffffffffffffffffffffffffffffffffffffffff1673ffffffffffffffffffffffffffffffffffffffff163373ffffffffffffffffffffffffffffffffffffffff161480610a945750600160009054906101000a900473ffffffffffffffffffffffffffffffffffffffff1673ffffffffffffffffffffffffffffffffffffffff163373ffffffffffffffffffffffffffffffffffffffff16145b610ad3576040517f08c379a0000000000000000000000000000000000000000000000000000000008152600401610aca90610da2565b60405180910390fd5b80600260008481526020019081526020016000206005016000828254610af99190610df1565b925050819055505050565b6040518060e00160405280600081526020016000815260200160008152602001600081526020016000815260200160008152602001600081525090565b600080fd5b6000819050919050565b610b5981610b46565b8114610b6457600080fd5b50565b600081359050610b7681610b50565b92915050565b60008060408385031215610b9357610b92610b41565b5b6000610ba185828601610b67565b9250506020610bb285828601610b67565b9150509250929050565b600060208284031215610bd257610bd1610b41565b5b6000610be084828501610b67565b91505092915050565b610bf281610b46565b82525050565b600060e082019050610c0d600083018a610be9565b610c1a6020830189610be9565b610c276040830188610be9565b610c346060830187610be9565b610c416080830186610be9565b610c4e60a0830185610be9565b610c5b60c0830184610be9565b98975050505050505050565b610c7081610b46565b82525050565b60e082016000820151610c8c6000850182610c67565b506020820151610c9f6020850182610c67565b506040820151610cb26040850182610c67565b506060820151610cc56060850182610c67565b506080820151610cd86080850182610c67565b5060a0820151610ceb60a0850182610c67565b5060c0820151610cfe60c0850182610c67565b50505050565b600060e082019050610d196000830184610c76565b92915050565b600082825260208201905092915050565b7f43616c6c6572206973206e6f742074686520616c6c6f77656420636f6e74726160008201527f6374000000000000000000000000000000000000000000000000000000000000602082015250565b6000610d8c602283610d1f565b9150610d9782610d30565b604082019050919050565b60006020820190508181036000830152610dbb81610d7f565b9050919050565b7f4e487b7100000000000000000000000000000000000000000000000000000000600052601160045260246000fd5b6000610dfc82610b46565b9150610e0783610b46565b9250827fffffffffffffffffffffffffffffffffffffffffffffffffffffffffffffffff03821115610e3c57610e3b610dc2565b5b82820190509291505056fea26469706673582212202c7cd18ad57f34a1b80abcf52a56a1ca112bce21ec3ade02505e3c410ed7800d64736f6c634300080d0033",
  "immutableReferences": {},
  "source": "// SPDX-License-Identifier: MIT\npragma solidity ^0.8.0;\ninterface IRounds {\n     struct Round {\n        uint256 totalPot; // Total amount in the main pot for this round\n        uint256 totalSidePot; // Total amount in the side pot for this round\n        uint256 totalPlayers; // Total number of players in this round\n        uint256 totalKeys; // Total number of keys bought in this round\n        uint256 totalNextRoundPot; // Total amount reserved for the next round's pot\n        uint256 totalDividendPot; // Total amount in the dividend pot for this round\n        uint256 totalEarned; // Total amount earned (e.g., by the contract or players) in this round\n    }\n    function updateRoundPot(uint256 roundNumber, uint256 roundPot) external;\n    function updateRoundSidePot(uint256 roundNumber, uint256 roundSidePot) external;\n    function updateTotalPlayers(uint256 roundNumber, uint256 totalPlayers) external;\n    function updateTotalKeys(uint256 roundNumber, uint256 totalKeys) external;\n    function updateNextRoundPot(uint256 roundNumber, uint256 totalNextRoundPot) external;\n    function updateTotalDividendsPot(uint256 roundNumber, uint256 totalDividendPot) external;\n    function updateTotalEarned(uint256 roundNumber, uint256 totalEarned) external;\n}\ncontract Rounds {\n    struct Round {\n        uint256 totalPot; // Total amount in the main pot for this round\n        uint256 totalSidePot; // Total amount in the side pot for this round\n        uint256 totalPlayers; // Total number of players in this round\n        uint256 totalKeys; // Total number of keys bought in this round\n        uint256 totalNextRoundPot; // Total amount reserved for the next round's pot\n        uint256 totalDividendPot; // Total amount in the dividend pot for this round\n        uint256 totalEarned; // Total amount earned (e.g., by the contract or players) in this round\n    }\n    address allowedContractAddress;\n    address owner;\n\n    mapping (uint256=> Round) public rounds;\n\n    constructor(address _allowedContractAddress, address _owner){\n        allowedContractAddress = _allowedContractAddress;\n        owner = _owner;\n    }\n\n     modifier onlyAllowedContract() {\n    require(msg.sender == allowedContractAddress || msg.sender == owner, \"Caller is not the allowed contract\");\n    _;\n    }\n    function getRound(uint256 roundNumber) public view onlyAllowedContract returns(Round memory){\n        Round memory round = rounds[roundNumber];\n        return round;\n    }\n\n    function updateRoundPot(uint256 roundNumber, uint256 roundPot) onlyAllowedContract public {\n        rounds[roundNumber].totalPot += roundPot;\n    }\n    function updateRoundSidePot(uint256 roundNumber, uint256 roundSidePot) onlyAllowedContract public {\n        rounds[roundNumber].totalSidePot += roundSidePot;\n    }\n    function updateTotalPlayers(uint256 roundNumber, uint256 player) onlyAllowedContract public {\n        rounds[roundNumber].totalPlayers += player;\n    }\n    function updateTotalKeys(uint256 roundNumber, uint256 playerKeys) onlyAllowedContract public {\n        rounds[roundNumber].totalKeys += playerKeys;\n    }\n    function updateNextRoundPot(uint256 roundNumber, uint256 nextRoundPot) onlyAllowedContract public {\n        rounds[roundNumber].totalNextRoundPot += nextRoundPot;\n    }\n    function updateTotalDividendPot(uint256 roundNumber, uint256 diviePot) onlyAllowedContract public {\n        rounds[roundNumber].totalDividendPot += diviePot;\n    }\n    function updateTotalEarned(uint256 roundNumber, uint256 totalDivsEarned) onlyAllowedContract public {\n        rounds[roundNumber].totalEarned += totalDivsEarned;\n    } \n}\n",
  "sourcePath": "/home/jeremy/Desktop/blockchain-projects/fomo3dphoenix/contracts/Rounds.sol",
  "compiler": {
    "name": "solc",
    "version": "0.8.13+commit.abaa5c0e.Emscripten.clang"
  },
  "schemaVersion": "3.4.14",
  "updatedAt": "2023-08-01T11:12:47.127Z",
  "devdoc": {
    "kind": "dev",
    "methods": {},
    "version": 1
  },
  "userdoc": {
    "kind": "user",
    "methods": {},
    "version": 1
  }
}